{"abi":[{"type":"constructor","inputs":[{"name":"_merkleStorage","type":"address","internalType":"address"},{"name":"_aaveLendingPool","type":"address","internalType":"address"}],"stateMutability":"nonpayable"},{"type":"function","name":"aaveLendingPool","inputs":[],"outputs":[{"name":"","type":"address","internalType":"address"}],"stateMutability":"view"},{"type":"function","name":"closeEscrow","inputs":[{"name":"projectId","type":"string","internalType":"string"},{"name":"milestoneId","type":"string","internalType":"string"}],"outputs":[],"stateMutability":"nonpayable"},{"type":"function","name":"contributorPayments","inputs":[{"name":"","type":"string","internalType":"string"},{"name":"","type":"string","internalType":"string"},{"name":"","type":"string","internalType":"string"},{"name":"","type":"address","internalType":"address"}],"outputs":[{"name":"","type":"uint256","internalType":"uint256"}],"stateMutability":"view"},{"type":"function","name":"createEscrow","inputs":[{"name":"projectId","type":"string","internalType":"string"},{"name":"milestoneId","type":"string","internalType":"string"},{"name":"token","type":"address","internalType":"address"},{"name":"amount","type":"uint256","internalType":"uint256"},{"name":"yieldEnabled","type":"bool","internalType":"bool"},{"name":"deadlineDays","type":"uint256","internalType":"uint256"}],"outputs":[],"stateMutability":"nonpayable"},{"type":"function","name":"depositToEscrow","inputs":[{"name":"projectId","type":"string","internalType":"string"},{"name":"milestoneId","type":"string","internalType":"string"},{"name":"amount","type":"uint256","internalType":"uint256"}],"outputs":[],"stateMutability":"nonpayable"},{"type":"function","name":"escrowPools","inputs":[{"name":"","type":"string","internalType":"string"},{"name":"","type":"string","internalType":"string"}],"outputs":[{"name":"sponsor","type":"address","internalType":"address"},{"name":"token","type":"address","internalType":"address"},{"name":"totalDeposited","type":"uint256","internalType":"uint256"},{"name":"totalPaid","type":"uint256","internalType":"uint256"},{"name":"yieldGenerated","type":"uint256","internalType":"uint256"},{"name":"yieldEnabled","type":"bool","internalType":"bool"},{"name":"createdAt","type":"uint256","internalType":"uint256"},{"name":"deadline","type":"uint256","internalType":"uint256"},{"name":"active","type":"bool","internalType":"bool"}],"stateMutability":"view"},{"type":"function","name":"getAvailableBalance","inputs":[{"name":"projectId","type":"string","internalType":"string"},{"name":"milestoneId","type":"string","internalType":"string"}],"outputs":[{"name":"","type":"uint256","internalType":"uint256"}],"stateMutability":"view"},{"type":"function","name":"getEscrowPool","inputs":[{"name":"projectId","type":"string","internalType":"string"},{"name":"milestoneId","type":"string","internalType":"string"}],"outputs":[{"name":"","type":"tuple","internalType":"struct EscrowAndYield.EscrowPool","components":[{"name":"sponsor","type":"address","internalType":"address"},{"name":"token","type":"address","internalType":"address"},{"name":"totalDeposited","type":"uint256","internalType":"uint256"},{"name":"totalPaid","type":"uint256","internalType":"uint256"},{"name":"yieldGenerated","type":"uint256","internalType":"uint256"},{"name":"yieldEnabled","type":"bool","internalType":"bool"},{"name":"createdAt","type":"uint256","internalType":"uint256"},{"name":"deadline","type":"uint256","internalType":"uint256"},{"name":"active","type":"bool","internalType":"bool"}]}],"stateMutability":"view"},{"type":"function","name":"harvestYield","inputs":[{"name":"projectId","type":"string","internalType":"string"},{"name":"milestoneId","type":"string","internalType":"string"}],"outputs":[],"stateMutability":"nonpayable"},{"type":"function","name":"isContributorPaid","inputs":[{"name":"projectId","type":"string","internalType":"string"},{"name":"milestoneId","type":"string","internalType":"string"},{"name":"submilestoneId","type":"string","internalType":"string"},{"name":"contributor","type":"address","internalType":"address"}],"outputs":[{"name":"","type":"bool","internalType":"bool"}],"stateMutability":"view"},{"type":"function","name":"merkleStorage","inputs":[],"outputs":[{"name":"","type":"address","internalType":"contract MerkleCommitStorage"}],"stateMutability":"view"},{"type":"function","name":"owner","inputs":[],"outputs":[{"name":"","type":"address","internalType":"address"}],"stateMutability":"view"},{"type":"function","name":"payContributor","inputs":[{"name":"projectId","type":"string","internalType":"string"},{"name":"milestoneId","type":"string","internalType":"string"},{"name":"submilestoneId","type":"string","internalType":"string"},{"name":"contributor","type":"address","internalType":"address"},{"name":"amount","type":"uint256","internalType":"uint256"},{"name":"proof","type":"bytes32[]","internalType":"bytes32[]"}],"outputs":[],"stateMutability":"nonpayable"},{"type":"function","name":"renounceOwnership","inputs":[],"outputs":[],"stateMutability":"nonpayable"},{"type":"function","name":"setAaveLendingPool","inputs":[{"name":"_aaveLendingPool","type":"address","internalType":"address"}],"outputs":[],"stateMutability":"nonpayable"},{"type":"function","name":"transferOwnership","inputs":[{"name":"newOwner","type":"address","internalType":"address"}],"outputs":[],"stateMutability":"nonpayable"},{"type":"event","name":"ContributorPaid","inputs":[{"name":"projectId","type":"string","indexed":true,"internalType":"string"},{"name":"milestoneId","type":"string","indexed":true,"internalType":"string"},{"name":"submilestoneId","type":"string","indexed":false,"internalType":"string"},{"name":"contributor","type":"address","indexed":true,"internalType":"address"},{"name":"amount","type":"uint256","indexed":false,"internalType":"uint256"}],"anonymous":false},{"type":"event","name":"EscrowClosed","inputs":[{"name":"projectId","type":"string","indexed":true,"internalType":"string"},{"name":"milestoneId","type":"string","indexed":true,"internalType":"string"},{"name":"remainingAmount","type":"uint256","indexed":false,"internalType":"uint256"}],"anonymous":false},{"type":"event","name":"EscrowCreated","inputs":[{"name":"projectId","type":"string","indexed":true,"internalType":"string"},{"name":"milestoneId","type":"string","indexed":true,"internalType":"string"},{"name":"sponsor","type":"address","indexed":true,"internalType":"address"},{"name":"token","type":"address","indexed":false,"internalType":"address"},{"name":"amount","type":"uint256","indexed":false,"internalType":"uint256"},{"name":"yieldEnabled","type":"bool","indexed":false,"internalType":"bool"}],"anonymous":false},{"type":"event","name":"FundsDeposited","inputs":[{"name":"projectId","type":"string","indexed":true,"internalType":"string"},{"name":"milestoneId","type":"string","indexed":true,"internalType":"string"},{"name":"sponsor","type":"address","indexed":true,"internalType":"address"},{"name":"amount","type":"uint256","indexed":false,"internalType":"uint256"}],"anonymous":false},{"type":"event","name":"OwnershipTransferred","inputs":[{"name":"previousOwner","type":"address","indexed":true,"internalType":"address"},{"name":"newOwner","type":"address","indexed":true,"internalType":"address"}],"anonymous":false},{"type":"event","name":"YieldHarvested","inputs":[{"name":"projectId","type":"string","indexed":true,"internalType":"string"},{"name":"milestoneId","type":"string","indexed":true,"internalType":"string"},{"name":"yieldAmount","type":"uint256","indexed":false,"internalType":"uint256"}],"anonymous":false},{"type":"error","name":"OwnableInvalidOwner","inputs":[{"name":"owner","type":"address","internalType":"address"}]},{"type":"error","name":"OwnableUnauthorizedAccount","inputs":[{"name":"account","type":"address","internalType":"address"}]},{"type":"error","name":"ReentrancyGuardReentrantCall","inputs":[]},{"type":"error","name":"SafeERC20FailedOperation","inputs":[{"name":"token","type":"address","internalType":"address"}]}],"bytecode":{"object":"0x6080346200015657601f62001abe38819003918201601f19168301916001600160401b038311848410176200015a57808492604094855283398101031262000156576200005a602062000052836200016e565b92016200016e565b9033156200013e575f549160018060a01b03199233848216175f556040519060018060a01b03938491823391167f8be0079c531659141344cd1fd0a4f28419497f9722a3daafe3b4186f6b6457e05f80a360017f9b779b17422d0df92223018b32b4d1fa46e071723d6817e2486d003becc55f005516908115620000fc57508360035416176003551690600454161760045560405161193a9081620001848239f35b62461bcd60e51b815260206004820152601660248201527f496e76616c6964204d65726b6c652073746f72616765000000000000000000006044820152606490fd5b604051631e4fbdf760e01b81525f6004820152602490fd5b5f80fd5b634e487b7160e01b5f52604160045260245ffd5b51906001600160a01b0382168203620001565756fe60806040526004361015610011575f80fd5b5f3560e01c80631b07c5f21461136257806349a24e0314610e5e5780634e32010e14610e36578063508cf5d11461099f57806357b7fc9f146108b0578063715018a6146108595780637cac32e41461079c5780638d8c513d1461065f5780638da5cb5b14610638578063a16c458e146105f5578063b9d324d61461053c578063bb864623146104e2578063bfde14a8146102f3578063c6dab7831461017f578063e9d337b8146101575763f2fde38b146100c9575f80fd5b34610153576020366003190112610153576100e26115bb565b6100ea6116b6565b6001600160a01b0390811690811561013b575f54826bffffffffffffffffffffffff60a01b8216175f55167f8be0079c531659141344cd1fd0a4f28419497f9722a3daafe3b4186f6b6457e05f80a3005b604051631e4fbdf760e01b81525f6004820152602490fd5b5f80fd5b34610153575f366003190112610153576004546040516001600160a01b039091168152602090f35b34610153576060366003190112610153576001600160401b03600435818111610153576101b090369060040161152e565b9091602435908111610153576101ca90369060040161152e565b9091604435936101d8611809565b6101f76040518383823760208185810160018152030190208486611767565b61020760ff600883015416611838565b80546001600160a01b039190821633036102ae5761024b916001889261022e8415156116e1565b6002810161023d85825461175a565b905501541630903390611780565b81604051928392833781015f81520390209181604051928392833781015f8152039020906040519283527f0d9988549aa807a58fa72ddbefbdcbffbe784057e35eaa842d03d5148f51b69560203394a460015f805160206118e583398151915255005b60405162461bcd60e51b815260206004820152601860248201527f4f6e6c792073706f6e736f722063616e206465706f73697400000000000000006044820152606490fd5b34610153576103013661155b565b610309611809565b604051908385833761032c82858101600181526020948591030190208285611767565b9361033d60ff600887015416611838565b60ff600586015416156104a9576004546001600160a01b03969087161561046e57838697600160249798015416604051968780926370a0823160e01b82523060048301525afa948515610463575f95610434575b506103a56002880154600389015490611878565b8086116103c0575b60015f805160206118e583398151915255005b6103ed6004917f83289d1d895042fad7630c7bc4754166a8778183710e4fe52075566bc22d6cf897611878565b97016103fa88825461175a565b905581604051928392833781015f81520390209381604051928392833781015f815203902093604051908152a380808080808080806103ad565b9094508381813d831161045c575b61044c81836115ed565b8101031261015357519387610391565b503d610442565b6040513d5f823e3d90fd5b60405162461bcd60e51b815260048101859052601360248201527210585d99481b9bdd0818dbdb999a59dd5c9959606a1b6044820152606490fd5b60405162461bcd60e51b8152600481018490526011602482015270165a595b19081b9bdd08195b98589b1959607a1b6044820152606490fd5b34610153576020610534610516826104f93661155b565b928260409592955193849283378101600181520301902091611767565b600361052b600283015460048401549061175a565b91015490611878565b604051908152f35b34610153576080366003190112610153576001600160401b036004358181116101535761056d90369060040161152e565b6024929192358281116101535761058890369060040161152e565b9092604435908111610153576105d6936105a96105d092369060040161152e565b93909460206105b66115a5565b988260405193849283378101600281520301902091611767565b91611767565b9060018060a01b03165f52602052602060405f20541515604051908152f35b346101535760203660031901126101535761060e6115bb565b6106166116b6565b600480546001600160a01b0319166001600160a01b0392909216919091179055005b34610153575f366003190112610153575f546040516001600160a01b039091168152602090f35b34610153576101206106d46106733661155b565b9091602060409594955195610687876115d1565b5f87525f828801525f60408801525f60608801525f60808801525f60a08801525f60c08801525f60e08801525f610100809801528260405193849283378101600181520301902091611767565b906040516106e1816115d1565b60018060a01b039283815416938483528060018301541690602084019182526002830154604085019081526003840154606086019081526004850154916080870192835260ff6005870154169360a08801941515855260068701549560c089019687528960ff600860078b01549a60e08d019b8c52015416990198151589526040519a8b52511660208a015251604089015251606088015251608087015251151560a08601525160c08501525160e084015251151590820152f35b34610153576080366003190112610153576001600160401b03600435818111610153576107cd903690600401611629565b90602435818111610153576107e6903690600401611629565b6044359182116101535761083661080461083c933690600401611629565b9161082660206108126115a5565b96816040519382858094519384920161166f565b8101600281520301902090611690565b90611690565b9060018060a01b03165f52602052602060405f2054604051908152f35b34610153575f366003190112610153576108716116b6565b5f80546001600160a01b0319811682556001600160a01b03167f8be0079c531659141344cd1fd0a4f28419497f9722a3daafe3b4186f6b6457e08280a3005b34610153576040366003190112610153576001600160401b03600435818111610153576108e1903690600401611629565b90602435908111610153576101209161091a602061090661092a943690600401611629565b92816040519382858094519384920161166f565b8101600181520301902090611690565b60018060a01b039081815416916001820154169060028101546003820154600483015460ff6005850154169160068501549360ff6008600788015497015416966040519889526020890152604088015260608701526080860152151560a085015260c084015260e08301521515610100820152f35b346101535760c0366003190112610153576001600160401b03600435818111610153576109d090369060040161152e565b602435838111610153576109e890369060040161152e565b92909160443585811161015357610a0390369060040161152e565b949091610a0e6115a5565b968060a435116101535736602360a4350112156101535760a43560040135116101535736602460a4356004013560051b60a43501011161015357610a50611809565b610a6f6040518286823760208184810160018152030190208387611767565b93610a8060ff600887015416611838565b84546001600160a01b03163303610dfa576001600160a01b03881615610dbf57610aad60843515156116e1565b6003546040516340812a5560e11b815260a06004820152906001600160a01b0316610b08610af5610ae260a48501878761173a565b848103600319016024860152878b61173a565b8381036003190160448501528a8861173a565b6084803560648501528382036003190190840152600460a43501358082526001600160fb1b031061015357602091838381809460a4356004013560051b602460a435018483013760a4356004013560051b010301915afa908115610463575f91610d85575b5015610d4957610b9c610b956040518484823760208186810160028152030190208589611767565b8886611767565b60018060a01b0389165f5260205260405f2054610d1557610bc6600286015460048701549061175a565b6003860190610bda60843591835490611878565b10610cd0577f723f8d55e2965788423f07c6e502180bf762a3581e4019f14686318b3def425a95610c6b91610c2e610c27604051878782376020818981016002815203019020888c611767565b8b89611767565b60018060a01b038c165f5260205260843560405f2055610c51608435825461175a565b905560010154608435908a906001600160a01b0316611885565b81604051928392833781015f81520390209381604051928392833781015f815203902093610ca660405192839260408452604084019161173a565b60843560208301526001600160a01b03909616950390a460015f805160206118e583398151915255005b60405162461bcd60e51b815260206004820152601b60248201527f496e73756666696369656e7420657363726f772062616c616e636500000000006044820152606490fd5b60405162461bcd60e51b815260206004820152600c60248201526b105b1c9958591e481c185a5960a21b6044820152606490fd5b60405162461bcd60e51b815260206004820152601460248201527324b73b30b634b21026b2b935b63290383937b7b360611b6044820152606490fd5b90506020813d602011610db7575b81610da0602093836115ed565b8101031261015357610db19061172d565b89610b6d565b3d9150610d93565b60405162461bcd60e51b815260206004820152601360248201527224b73b30b634b21031b7b73a3934b13aba37b960691b6044820152606490fd5b60405162461bcd60e51b81526020600482015260146024820152734f6e6c792073706f6e736f722063616e2070617960601b6044820152606490fd5b34610153575f366003190112610153576003546040516001600160a01b039091168152602090f35b346101535760031960c036820112610153576004356001600160401b03811161015357610e8f90369060040161152e565b6024929192356001600160401b03811161015357610eb190369060040161152e565b60443594919290916001600160a01b03861686036101535760843594851515860361015357610ede611809565b610eeb60643515156116e1565b6001600160a01b0387161561132d5760a435156112f4575f610f4a9160018060a01b0360035416604051808095819463286f9d9760e11b835260406004840152610f39604484018b8b61173a565b908382030160248401528a8c61173a565b03915afa908115610463575f916111dc575b5080511561119757602001516001600160a01b0316330361115257620151808060a435029060a43582040361113e57610f986110ad914261175a565b60405190610fa5826115d1565b33825260018060a01b038916602083015260643560408301525f60608301525f608083015287151560a08301524260c083015260e082015260016101008201526008610100611009604051878782376020818981016001815203019020888a611767565b9260018060a01b038151166bffffffffffffffffffffffff60a01b9081865416178555600185019060018060a01b036020840151169082541617905560408101516002850155606081015160038501556080810151600485015561108260a08201511515600586019060ff801983541691151516179055565b60c0810151600685015560e081015160078501550151151591019060ff801983541691151516179055565b6110c460643530336001600160a01b038a16611780565b81604051928392833781015f81520390209181604051928392833781015f8152039020916040519360018060a01b031684526064356020850152151560408401527f3706e03e03c5c9bb0dc868836603b94874dad82e2942331b90766bce791fa8e660603394a460015f805160206118e583398151915255005b634e487b7160e01b5f52601160045260245ffd5b60405162461bcd60e51b815260206004820152601f60248201527f4f6e6c79206d696c6573746f6e652063726561746f722063616e2066756e64006044820152606490fd5b60405162461bcd60e51b815260206004820152601760248201527f4d696c6573746f6e65206e6f7420636f6d6d69747465640000000000000000006044820152606490fd5b90503d805f833e6111ed81836115ed565b81016020918281830312610153578051906001600160401b03821161015357019160e083830312610153576040519260e084018481106001600160401b038211176112e05760405280518452818101516001600160a01b0381168103610153578285015260408101516040850152606081015160608501526080810151608085015261127b60a0820161172d565b60a085015260c0810151906001600160401b038211610153570182601f82011215610153578051906112ac8261160e565b936112ba60405195866115ed565b82855283838301011161015357826112d5938501910161166f565b60c082015287610f5c565b634e487b7160e01b5f52604160045260245ffd5b60405162461bcd60e51b8152602060048201526011602482015270111958591b1a5b99481c995c5d5a5c9959607a1b6044820152606490fd5b60405162461bcd60e51b815260206004820152600d60248201526c24b73b30b634b2103a37b5b2b760991b6044820152606490fd5b34610153576113703661155b565b61137c93919293611809565b61139b6040518584823760208187810160018152030190208285611767565b90600882019485549360ff8516156114f85783546001600160a01b03908116959094903387036114ba576007820154421061147e577fa0936db837ecc22daa20447b1a0ed5a8fb9070938ec6b646676321b731a0bb0c9660209661141661140b600286015460048701549061175a565b600386015490611878565b9a8b9360ff1916905582611467575b5050505081604051928392833781015f81520390209381604051928392833781015f815203902093604051908152a360015f805160206118e583398151915255005b600161147594015416611885565b87878180611425565b60405162461bcd60e51b8152602060048201526014602482015273111958591b1a5b99481b9bdd081c995858da195960621b6044820152606490fd5b60405162461bcd60e51b81526020600482015260166024820152754f6e6c792073706f6e736f722063616e20636c6f736560501b6044820152606490fd5b60405162461bcd60e51b815260206004820152600e60248201526d105b1c9958591e4818db1bdcd95960921b6044820152606490fd5b9181601f84011215610153578235916001600160401b038311610153576020838186019501011161015357565b6040600319820112610153576001600160401b039160043583811161015357826115879160040161152e565b93909392602435918211610153576115a19160040161152e565b9091565b606435906001600160a01b038216820361015357565b600435906001600160a01b038216820361015357565b61012081019081106001600160401b038211176112e057604052565b90601f801991011681019081106001600160401b038211176112e057604052565b6001600160401b0381116112e057601f01601f191660200190565b81601f82011215610153578035906116408261160e565b9261164e60405194856115ed565b8284526020838301011161015357815f926020809301838601378301015290565b5f5b8381106116805750505f910152565b8181015183820152602001611671565b6020906116aa92826040519483868095519384920161166f565b82019081520301902090565b5f546001600160a01b031633036116c957565b60405163118cdaa760e01b8152336004820152602490fd5b156116e857565b60405162461bcd60e51b815260206004820152601760248201527f416d6f756e74206d75737420626520706f7369746976650000000000000000006044820152606490fd5b5190811515820361015357565b908060209392818452848401375f828201840152601f01601f1916010190565b9190820180921161113e57565b6020919283604051948593843782019081520301902090565b6040516323b872dd60e01b5f9081526001600160a01b03938416600452938316602452604494909452909160209060648180855af160015f51148116156117ea575b836040525f606052156117d457505050565b635274afe760e01b835216600482015260249150fd5b600181151661180057813b15153d1516166117c2565b833d5f823e3d90fd5b5f805160206118e583398151915260028154146118265760029055565b604051633ee5aeb560e01b8152600490fd5b1561183f57565b60405162461bcd60e51b8152602060048201526011602482015270457363726f77206e6f742061637469766560781b6044820152606490fd5b9190820391821161113e57565b60405163a9059cbb60e01b5f9081526001600160a01b039384166004526024949094529260209060448180855af160015f51148116156118ce575b83604052156117d457505050565b600181151661180057813b15153d1516166118c056fe9b779b17422d0df92223018b32b4d1fa46e071723d6817e2486d003becc55f00a2646970667358221220ee38b1e76fc892e412db9becb1fb6f1fcf5b96e0ae2d5ed38260060d01f725f264736f6c63430008140033","linkReferences":{}},"methodIdentifiers":{"aaveLendingPool()":"e9d337b8","closeEscrow(string,string)":"1b07c5f2","contributorPayments(string,string,string,address)":"7cac32e4","createEscrow(string,string,address,uint256,bool,uint256)":"49a24e03","depositToEscrow(string,string,uint256)":"c6dab783","escrowPools(string,string)":"57b7fc9f","getAvailableBalance(string,string)":"bb864623","getEscrowPool(string,string)":"8d8c513d","harvestYield(string,string)":"bfde14a8","isContributorPaid(string,string,string,address)":"b9d324d6","merkleStorage()":"4e32010e","owner()":"8da5cb5b","payContributor(string,string,string,address,uint256,bytes32[])":"508cf5d1","renounceOwnership()":"715018a6","setAaveLendingPool(address)":"a16c458e","transferOwnership(address)":"f2fde38b"},"id":27}