{
  "abi": [
    {
      "type": "constructor",
      "inputs": [],
      "stateMutability": "nonpayable"
    },
    {
      "type": "function",
      "name": "commitMilestone",
      "inputs": [
        {
          "name": "projectId",
          "type": "string",
          "internalType": "string"
        },
        {
          "name": "milestoneId",
          "type": "string",
          "internalType": "string"
        },
        {
          "name": "rootHash",
          "type": "bytes32",
          "internalType": "bytes32"
        },
        {
          "name": "totalAmount",
          "type": "uint256",
          "internalType": "uint256"
        },
        {
          "name": "submilestoneCount",
          "type": "uint256",
          "internalType": "uint256"
        },
        {
          "name": "metadataUri",
          "type": "string",
          "internalType": "string"
        }
      ],
      "outputs": [],
      "stateMutability": "nonpayable"
    },
    {
      "type": "function",
      "name": "commits",
      "inputs": [
        {
          "name": "",
          "type": "string",
          "internalType": "string"
        },
        {
          "name": "",
          "type": "string",
          "internalType": "string"
        }
      ],
      "outputs": [
        {
          "name": "rootHash",
          "type": "bytes32",
          "internalType": "bytes32"
        },
        {
          "name": "committer",
          "type": "address",
          "internalType": "address"
        },
        {
          "name": "totalAmount",
          "type": "uint256",
          "internalType": "uint256"
        },
        {
          "name": "submilestoneCount",
          "type": "uint256",
          "internalType": "uint256"
        },
        {
          "name": "committedAt",
          "type": "uint256",
          "internalType": "uint256"
        },
        {
          "name": "finalized",
          "type": "bool",
          "internalType": "bool"
        },
        {
          "name": "metadataUri",
          "type": "string",
          "internalType": "string"
        }
      ],
      "stateMutability": "view"
    },
    {
      "type": "function",
      "name": "finalizeMilestone",
      "inputs": [
        {
          "name": "projectId",
          "type": "string",
          "internalType": "string"
        },
        {
          "name": "milestoneId",
          "type": "string",
          "internalType": "string"
        }
      ],
      "outputs": [],
      "stateMutability": "nonpayable"
    },
    {
      "type": "function",
      "name": "getMilestoneCommit",
      "inputs": [
        {
          "name": "projectId",
          "type": "string",
          "internalType": "string"
        },
        {
          "name": "milestoneId",
          "type": "string",
          "internalType": "string"
        }
      ],
      "outputs": [
        {
          "name": "",
          "type": "tuple",
          "internalType": "struct MerkleCommitStorage.MilestoneCommit",
          "components": [
            {
              "name": "rootHash",
              "type": "bytes32",
              "internalType": "bytes32"
            },
            {
              "name": "committer",
              "type": "address",
              "internalType": "address"
            },
            {
              "name": "totalAmount",
              "type": "uint256",
              "internalType": "uint256"
            },
            {
              "name": "submilestoneCount",
              "type": "uint256",
              "internalType": "uint256"
            },
            {
              "name": "committedAt",
              "type": "uint256",
              "internalType": "uint256"
            },
            {
              "name": "finalized",
              "type": "bool",
              "internalType": "bool"
            },
            {
              "name": "metadataUri",
              "type": "string",
              "internalType": "string"
            }
          ]
        }
      ],
      "stateMutability": "view"
    },
    {
      "type": "function",
      "name": "getProjectMilestones",
      "inputs": [
        {
          "name": "projectId",
          "type": "string",
          "internalType": "string"
        }
      ],
      "outputs": [
        {
          "name": "",
          "type": "string[]",
          "internalType": "string[]"
        }
      ],
      "stateMutability": "view"
    },
    {
      "type": "function",
      "name": "owner",
      "inputs": [],
      "outputs": [
        {
          "name": "",
          "type": "address",
          "internalType": "address"
        }
      ],
      "stateMutability": "view"
    },
    {
      "type": "function",
      "name": "projectMilestones",
      "inputs": [
        {
          "name": "",
          "type": "string",
          "internalType": "string"
        },
        {
          "name": "",
          "type": "uint256",
          "internalType": "uint256"
        }
      ],
      "outputs": [
        {
          "name": "",
          "type": "string",
          "internalType": "string"
        }
      ],
      "stateMutability": "view"
    },
    {
      "type": "function",
      "name": "renounceOwnership",
      "inputs": [],
      "outputs": [],
      "stateMutability": "nonpayable"
    },
    {
      "type": "function",
      "name": "transferOwnership",
      "inputs": [
        {
          "name": "newOwner",
          "type": "address",
          "internalType": "address"
        }
      ],
      "outputs": [],
      "stateMutability": "nonpayable"
    },
    {
      "type": "function",
      "name": "verifySubmilestone",
      "inputs": [
        {
          "name": "projectId",
          "type": "string",
          "internalType": "string"
        },
        {
          "name": "milestoneId",
          "type": "string",
          "internalType": "string"
        },
        {
          "name": "submilestoneId",
          "type": "string",
          "internalType": "string"
        },
        {
          "name": "amount",
          "type": "uint256",
          "internalType": "uint256"
        },
        {
          "name": "proof",
          "type": "bytes32[]",
          "internalType": "bytes32[]"
        }
      ],
      "outputs": [
        {
          "name": "",
          "type": "bool",
          "internalType": "bool"
        }
      ],
      "stateMutability": "view"
    },
    {
      "type": "event",
      "name": "MilestoneCommitted",
      "inputs": [
        {
          "name": "projectId",
          "type": "string",
          "indexed": true,
          "internalType": "string"
        },
        {
          "name": "milestoneId",
          "type": "string",
          "indexed": true,
          "internalType": "string"
        },
        {
          "name": "rootHash",
          "type": "bytes32",
          "indexed": false,
          "internalType": "bytes32"
        },
        {
          "name": "committer",
          "type": "address",
          "indexed": true,
          "internalType": "address"
        },
        {
          "name": "totalAmount",
          "type": "uint256",
          "indexed": false,
          "internalType": "uint256"
        },
        {
          "name": "submilestoneCount",
          "type": "uint256",
          "indexed": false,
          "internalType": "uint256"
        },
        {
          "name": "metadataUri",
          "type": "string",
          "indexed": false,
          "internalType": "string"
        }
      ],
      "anonymous": false
    },
    {
      "type": "event",
      "name": "MilestoneFinalized",
      "inputs": [
        {
          "name": "projectId",
          "type": "string",
          "indexed": true,
          "internalType": "string"
        },
        {
          "name": "milestoneId",
          "type": "string",
          "indexed": true,
          "internalType": "string"
        },
        {
          "name": "rootHash",
          "type": "bytes32",
          "indexed": false,
          "internalType": "bytes32"
        }
      ],
      "anonymous": false
    },
    {
      "type": "event",
      "name": "MilestoneUpdated",
      "inputs": [
        {
          "name": "projectId",
          "type": "string",
          "indexed": true,
          "internalType": "string"
        },
        {
          "name": "milestoneId",
          "type": "string",
          "indexed": true,
          "internalType": "string"
        },
        {
          "name": "oldRootHash",
          "type": "bytes32",
          "indexed": false,
          "internalType": "bytes32"
        },
        {
          "name": "newRootHash",
          "type": "bytes32",
          "indexed": false,
          "internalType": "bytes32"
        }
      ],
      "anonymous": false
    },
    {
      "type": "event",
      "name": "OwnershipTransferred",
      "inputs": [
        {
          "name": "previousOwner",
          "type": "address",
          "indexed": true,
          "internalType": "address"
        },
        {
          "name": "newOwner",
          "type": "address",
          "indexed": true,
          "internalType": "address"
        }
      ],
      "anonymous": false
    },
    {
      "type": "error",
      "name": "OwnableInvalidOwner",
      "inputs": [
        {
          "name": "owner",
          "type": "address",
          "internalType": "address"
        }
      ]
    },
    {
      "type": "error",
      "name": "OwnableUnauthorizedAccount",
      "inputs": [
        {
          "name": "account",
          "type": "address",
          "internalType": "address"
        }
      ]
    },
    {
      "type": "error",
      "name": "ReentrancyGuardReentrantCall",
      "inputs": []
    }
  ],
  "bytecode": {
    "object": "0x6080806040523461009c573315610087575f8054336001600160a01b03198216811783556040519290916001600160a01b0316907f8be0079c531659141344cd1fd0a4f28419497f9722a3daafe3b4186f6b6457e09080a360017f9b779b17422d0df92223018b32b4d1fa46e071723d6817e2486d003becc55f005561130990816100a18239f35b631e4fbdf760e01b81525f6004820152602490fd5b5f80fdfe60806040526004361015610011575f80fd5b5f3560e01c806332d01365146107a357806350df3b2e1461068c578063715018a614610635578063810254aa1461057f57806382f94dce146104845780638da5cb5b1461045d5780639c509225146102b5578063bd66c72714610211578063cf16983f146101175763f2fde38b14610087575f80fd5b34610113576020366003190112610113576004356001600160a01b0381811691829003610113576100b6610fbb565b81156100fb575f54826bffffffffffffffffffffffff60a01b8216175f55167f8be0079c531659141344cd1fd0a4f28419497f9722a3daafe3b4186f6b6457e05f80a3005b604051631e4fbdf760e01b81525f6004820152602490fd5b5f80fd5b3461011357602080600319360112610113576004356001600160401b0381116101135761014982913690600401610d42565b9190826040519384928337810160028152030190209081549161016b83611153565b926101796040519485610e35565b80845282840180925f52835f205f915b8383106101ef5750505050604051918083019381845251809452604083019360408160051b85010192915f955b8287106101c35785850386f35b9091929382806101df600193603f198a82030186528851610dda565b96019201960195929190926101b6565b6001868192610200859a999a610ef1565b815201920192019190959495610189565b34610113576040366003190112610113576004356001600160401b03811161011357610241903690600401610e9b565b61025d6020602435928160405193828580945193849201610db9565b810160028152030190209081548110156101135761027a91610f92565b6102a25761028a61029e91610ef1565b604051918291602083526020830190610dda565b0390f35b634e487b7160e01b5f525f60045260245ffd5b34610113576102c336610d6f565b6102cf93919293611111565b6102ee6040518584823760208187810160018152030190208285610fe6565b90815494851561041857600583019384549360ff85166103df57600101546001600160a01b0316330361039a577f18ce2290fab72e17e83a9b272746b6e3f6169b7bc0c50155266f7010b144ed2794600160209560ff191617905581604051928392833781015f81520390209381604051928392833781015f815203902093604051908152a360017f9b779b17422d0df92223018b32b4d1fa46e071723d6817e2486d003becc55f0055005b60405162461bcd60e51b815260206004820152601b60248201527f4f6e6c7920636f6d6d69747465722063616e2066696e616c697a6500000000006044820152606490fd5b60405162461bcd60e51b8152602060048201526011602482015270105b1c9958591e48199a5b985b1a5e9959607a1b6044820152606490fd5b60405162461bcd60e51b815260206004820152601760248201527f4d696c6573746f6e65206e6f7420636f6d6d69747465640000000000000000006044820152606490fd5b34610113575f366003190112610113575f546040516001600160a01b039091168152602090f35b34610113576040366003190112610113576001600160401b03600435818111610113576104b5903690600401610e9b565b9060243590811161011357610509916104ec60206104d881943690600401610e9b565b928160405193828580945193849201610db9565b810160018152030190208260405194838680955193849201610db9565b820190815203019020805461029e60018060a01b0360018401541692600281015490600381015460048201549061054a600660ff6005860154169401610ef1565b9360405197889788526020880152604087015260608601526080850152151560a084015260e060c084015260e0830190610dda565b346101135760a0366003190112610113576001600160401b03600435818111610113576105b0903690600401610d42565b9091602435818111610113576105ca903690600401610d42565b929093604435838111610113576105e5903690600401610d42565b90608435958587116101135736602388011215610113578660040135958611610113573660248760051b8901011161011357602097602461062b9801956064359561116a565b6040519015158152f35b34610113575f3660031901126101135761064d610fbb565b5f80546001600160a01b0319811682556001600160a01b03167f8be0079c531659141344cd1fd0a4f28419497f9722a3daafe3b4186f6b6457e08280a3005b34610113576106ed602061069f36610d6f565b92606060c06040969396516106b381610dff565b5f81525f858201525f60408201525f838201525f60808201525f60a082015201528260405193849283378101600181520301902091610fe6565b6040516106f981610dff565b8154815261029e60018060a01b0380600185015416936020840194855260028101546040850190815260038201546060860190815260048301549160808701928352610758600660ff6005870154169560a08a01961515875201610ef1565b9460c0880195865260405198899860208a525160208a0152511660408801525160608701525160808601525160a085015251151560c08401525160e080840152610100830190610dda565b346101135760c0366003190112610113576004356001600160401b038111610113576107d3903690600401610d42565b6024356001600160401b038111610113576107f2903690600401610d42565b60a4929192356001600160401b03811161011357610814903690600401610d42565b91909261081f611111565b60443515610d095760643515610cc45760843515610c7f578215610c425761085e60405182888237600183820152602081848101030190208387610fe6565b8054909690156109c25760ff60058801541661097d5760018701546001600160a01b0316330361092d576108d66040947f9680258296941b7e30ff7fbc2e9fe76be615491d0c7978cd4fb207aa990cdac79660068a549a60443581556064356002820155608435600382015542600482015501611052565b818451928392833781015f815203902093818351928392833781015f81520390209381519081526044356020820152a35b60017f9b779b17422d0df92223018b32b4d1fa46e071723d6817e2486d003becc55f0055005b60405162461bcd60e51b815260206004820152602260248201527f4f6e6c79206f726967696e616c20636f6d6d69747465722063616e2075706461604482015261746560f01b6064820152608490fd5b60405162461bcd60e51b815260206004820152601b60248201527f4d696c6573746f6e6520616c72656164792066696e616c697a656400000000006044820152606490fd5b9295506040949394516109d481610dff565b604435815260208101338152604082016064358152606083016084358152608084019042825260a08501925f8452610a0d368d8d610e56565b9460c08701958652610a34604051898c82376020818b810160018152030190208a8d610fe6565b96518755600187019060018060a01b039051166bffffffffffffffffffffffff60a01b825416179055516002860155516003850155516004840155600583019051151560ff80198354169116179055518051906001600160401b038211610bb757610aaf82610aa66006860154610eb9565b60068601610fff565b602090601f8311600114610bd657600692915f9183610bcb575b50508160011b915f199060031b1c1916179101555b604051818482376020818381016002815203019020805468010000000000000000811015610bb757610b1591600182018155610f92565b9390936102a257610b4883867fdb610c32f98c75a80db9ce3693f1bc8c305978760aa60d71adec3eaa9ea8378196611052565b81604051928392833781015f81520390209281604051928392833781015f81520390209284604051916044358352606435602084015260843560408401526080606084015281608084015260a08301375f60a0868301015260a0813396601f80199101168101030190a4610907565b634e487b7160e01b5f52604160045260245ffd5b015190508a80610ac9565b90600684015f5260205f20915f5b601f1985168110610c2a5750918391600193600695601f19811610610c12575b505050811b01910155610ade565b01515f1960f88460031b161c191690558a8080610c04565b91926020600181928685015181550194019201610be4565b60405162461bcd60e51b815260206004820152601560248201527413595d1859185d1848155492481c995c5d5a5c9959605a1b6044820152606490fd5b60405162461bcd60e51b815260206004820152601760248201527f4d7573742068617665207375626d696c6573746f6e65730000000000000000006044820152606490fd5b60405162461bcd60e51b815260206004820152601760248201527f416d6f756e74206d75737420626520706f7369746976650000000000000000006044820152606490fd5b60405162461bcd60e51b8152602060048201526011602482015270092dcecc2d8d2c840e4dedee840d0c2e6d607b1b6044820152606490fd5b9181601f84011215610113578235916001600160401b038311610113576020838186019501011161011357565b6040600319820112610113576001600160401b03916004358381116101135782610d9b91600401610d42565b9390939260243591821161011357610db591600401610d42565b9091565b5f5b838110610dca5750505f910152565b8181015183820152602001610dbb565b90602091610df381518092818552858086019101610db9565b601f01601f1916010190565b60e081019081106001600160401b03821117610bb757604052565b606081019081106001600160401b03821117610bb757604052565b90601f801991011681019081106001600160401b03821117610bb757604052565b9291926001600160401b038211610bb75760405191610e7f601f8201601f191660200184610e35565b829481845281830111610113578281602093845f960137010152565b9080601f8301121561011357816020610eb693359101610e56565b90565b90600182811c92168015610ee7575b6020831014610ed357565b634e487b7160e01b5f52602260045260245ffd5b91607f1691610ec8565b9060405191825f825492610f0484610eb9565b9081845260019485811690815f14610f6f5750600114610f2f575b5050610f2d92500383610e35565b565b909391505f52602090815f20935f915b818310610f57575050610f2d93508201015f80610f1f565b85548884018501529485019487945091830191610f3f565b915050610f2d94506020925060ff191682840152151560051b8201015f80610f1f565b8054821015610fa7575f5260205f2001905f90565b634e487b7160e01b5f52603260045260245ffd5b5f546001600160a01b03163303610fce57565b60405163118cdaa760e01b8152336004820152602490fd5b6020919283604051948593843782019081520301902090565b90601f811161100d57505050565b5f91825260208220906020601f850160051c83019410611048575b601f0160051c01915b82811061103d57505050565b818155600101611031565b9092508290611028565b9092916001600160401b038111610bb757611077816110718454610eb9565b84610fff565b5f601f82116001146110ae57819293945f926110a3575b50508160011b915f199060031b1c1916179055565b013590505f8061108e565b601f198216948382526020918281209281905b8882106110f9575050836001959697106110e0575b505050811b019055565b01355f19600384901b60f8161c191690555f80806110d6565b806001849682949587013581550195019201906110c1565b7f9b779b17422d0df92223018b32b4d1fa46e071723d6817e2486d003becc55f0060028154146111415760029055565b604051633ee5aeb560e01b8152600490fd5b6001600160401b038111610bb75760051b60200190565b93916111999098959896919396604094808651978837860197866001998a815260209889910301902091610fe6565b549788156112c657836111c691815193818592898401978837820190888201520386810184520182610e35565b5190206111d284611153565b956111df83519788610e35565b848752838701600595861b8201913683116101135797949397905b8282106112b75750505090849291955f9283965b61121e575b505050505050501490565b90919293949598979681518a10156112af5789871b820184015180821161128c578351908582019283528482015283815261125881610e1a565b519020955b5f198a146112785785809798999a019694939291909561120e565b634e487b7160e01b85526011600452602485fd5b90835190858201928352848201528381526112a681610e1a565b5190209561125d565b969798611213565b813581529084019084016111fa565b5050505050505050505f9056fea264697066735822122017387586d485c27b38243f91289a00af13921d69ddac6f695b08f32ff97770f664736f6c63430008140033",
    "linkReferences": {}
  },
  "methodIdentifiers": {
    "commitMilestone(string,string,bytes32,uint256,uint256,string)": "32d01365",
    "commits(string,string)": "82f94dce",
    "finalizeMilestone(string,string)": "9c509225",
    "getMilestoneCommit(string,string)": "50df3b2e",
    "getProjectMilestones(string)": "cf16983f",
    "owner()": "8da5cb5b",
    "projectMilestones(string,uint256)": "bd66c727",
    "renounceOwnership()": "715018a6",
    "transferOwnership(address)": "f2fde38b",
    "verifySubmilestone(string,string,string,uint256,bytes32[])": "810254aa"
  },
  "id": 28
}