{"abi":[{"type":"constructor","inputs":[{"name":"_paymentToken","type":"address","internalType":"address"},{"name":"_treasury","type":"address","internalType":"address"},{"name":"_minPayment","type":"uint256","internalType":"uint256"},{"name":"_maxPayment","type":"uint256","internalType":"uint256"}],"stateMutability":"nonpayable"},{"type":"function","name":"chargeX402","inputs":[{"name":"amount","type":"uint256","internalType":"uint256"},{"name":"promptId","type":"string","internalType":"string"}],"outputs":[],"stateMutability":"nonpayable"},{"type":"function","name":"maxPaymentPerPrompt","inputs":[],"outputs":[{"name":"","type":"uint256","internalType":"uint256"}],"stateMutability":"view"},{"type":"function","name":"minPaymentPerPrompt","inputs":[],"outputs":[{"name":"","type":"uint256","internalType":"uint256"}],"stateMutability":"view"},{"type":"function","name":"owner","inputs":[],"outputs":[{"name":"","type":"address","internalType":"address"}],"stateMutability":"view"},{"type":"function","name":"paymentToken","inputs":[],"outputs":[{"name":"","type":"address","internalType":"contract IERC20"}],"stateMutability":"view"},{"type":"function","name":"renounceOwnership","inputs":[],"outputs":[],"stateMutability":"nonpayable"},{"type":"function","name":"transferOwnership","inputs":[{"name":"newOwner","type":"address","internalType":"address"}],"outputs":[],"stateMutability":"nonpayable"},{"type":"function","name":"treasury","inputs":[],"outputs":[{"name":"","type":"address","internalType":"address"}],"stateMutability":"view"},{"type":"function","name":"updatePaymentLimits","inputs":[{"name":"_min","type":"uint256","internalType":"uint256"},{"name":"_max","type":"uint256","internalType":"uint256"}],"outputs":[],"stateMutability":"nonpayable"},{"type":"function","name":"updateTreasury","inputs":[{"name":"_newTreasury","type":"address","internalType":"address"}],"outputs":[],"stateMutability":"nonpayable"},{"type":"event","name":"Micropaid","inputs":[{"name":"user","type":"address","indexed":true,"internalType":"address"},{"name":"smartAccount","type":"address","indexed":true,"internalType":"address"},{"name":"amount","type":"uint256","indexed":false,"internalType":"uint256"},{"name":"promptId","type":"string","indexed":false,"internalType":"string"},{"name":"timestamp","type":"uint256","indexed":false,"internalType":"uint256"}],"anonymous":false},{"type":"event","name":"OwnershipTransferred","inputs":[{"name":"previousOwner","type":"address","indexed":true,"internalType":"address"},{"name":"newOwner","type":"address","indexed":true,"internalType":"address"}],"anonymous":false},{"type":"event","name":"PaymentLimitsUpdated","inputs":[{"name":"minPayment","type":"uint256","indexed":false,"internalType":"uint256"},{"name":"maxPayment","type":"uint256","indexed":false,"internalType":"uint256"}],"anonymous":false},{"type":"event","name":"TreasuryUpdated","inputs":[{"name":"oldTreasury","type":"address","indexed":true,"internalType":"address"},{"name":"newTreasury","type":"address","indexed":true,"internalType":"address"}],"anonymous":false},{"type":"error","name":"OwnableInvalidOwner","inputs":[{"name":"owner","type":"address","internalType":"address"}]},{"type":"error","name":"OwnableUnauthorizedAccount","inputs":[{"name":"account","type":"address","internalType":"address"}]},{"type":"error","name":"ReentrancyGuardReentrantCall","inputs":[]}],"bytecode":{"object":"0x60a0346101d857601f6108c138819003918201601f191683019291906001600160401b038411838510176101dc5781608092849260409687528339810103126101d85761004b816101f0565b90610058602082016101f0565b916060848301519201519233156101c1575f8054336001600160a01b03198083168217845588519590946001600160a01b03949093859391908416907f8be0079c531659141344cd1fd0a4f28419497f9722a3daafe3b4186f6b6457e09080a360017f9b779b17422d0df92223018b32b4d1fa46e071723d6817e2486d003becc55f00551693841561018f5750169182156101585784841015610123576080526001541617600155600255600355516106bc9081610205823960805181818161034a015261062c0152f35b855162461bcd60e51b815260206004820152600e60248201526d496e76616c6964206c696d69747360901b6044820152606490fd5b855162461bcd60e51b815260206004820152601060248201526f496e76616c696420747265617375727960801b6044820152606490fd5b62461bcd60e51b815260206004820152600d60248201526c24b73b30b634b2103a37b5b2b760991b6044820152606490fd5b8451631e4fbdf760e01b81525f6004820152602490fd5b5f80fd5b634e487b7160e01b5f52604160045260245ffd5b51906001600160a01b03821682036101d85756fe6080604081815260049081361015610015575f80fd5b5f92833560e01c9081633013ce29146106185750806353aa653614610581578063541370301461056257806361d027b314610539578063638cb99b14610279578063715018a61461021c5780637f51bb1f1461016a5780638da5cb5b14610142578063a4db1a381461011f5763f2fde38b1461008f575f80fd5b3461011b57602036600319011261011b576001600160a01b03823581811693919290849003610117576100c061065b565b831561010157505082546001600160a01b0319811683178455167f8be0079c531659141344cd1fd0a4f28419497f9722a3daafe3b4186f6b6457e08380a380f35b51631e4fbdf760e01b8152908101849052602490fd5b8480fd5b8280fd5b83823461013e578160031936011261013e576020906002549051908152f35b5080fd5b83823461013e578160031936011261013e57905490516001600160a01b039091168152602090f35b503461011b57602036600319011261011b576001600160a01b038235818116939192908490036101175761019c61065b565b83156101e6575050600154826bffffffffffffffffffffffff60a01b821617600155167f4ab5be82436d353e61ca18726e984e561f5c1cc7c6d38b29d2553c790434705a8380a380f35b906020606492519162461bcd60e51b8352820152601060248201526f496e76616c696420747265617375727960801b6044820152fd5b833461027657806003193601126102765761023561065b565b80546001600160a01b03198116825581906001600160a01b03167f8be0079c531659141344cd1fd0a4f28419497f9722a3daafe3b4186f6b6457e08280a380f35b80fd5b5082903461013e578060031936011261013e57823560249384359267ffffffffffffffff9384811161053557366023820112156105355780830135928584116105315736888584010111610531577f9b779b17422d0df92223018b32b4d1fa46e071723d6817e2486d003becc55f00956002875414610522576002875560025486106104ee5760035486116104b457841561047f5760015484516323b872dd60e01b815233818501526001600160a01b039182168b8201526044810188905260209392918490829060649082908e907f0000000000000000000000000000000000000000000000000000000000000000165af1918215610475578a92610416575b5050156103e557509683916060600198998551978852870152826060870152016080850137856080838501015242908301527fed97e8d12258a2bac8f783d7bddff365e23bf1e9ccae6fb43bd3c9e6bf39656633926080813294601f80199101168101030190a35580f35b600e8960649386519362461bcd60e51b85528401528201526d14185e5b595b9d0819985a5b195960921b6044820152fd5b90915083903d851161046d575b601f8201601f191683019081118382101761045b578491839188528101031261045757518015158103610457578a8061037a565b8880fd5b634e487b7160e01b8b52604184528b8bfd5b3d9150610423565b86513d8c823e3d90fd5b835162461bcd60e51b81526020818401526010818b01526f125b9d985b1a59081c1c9bdb5c1d125960821b6044820152606490fd5b835162461bcd60e51b81526020818401526015818b01527414185e5b595b9d08195e18d959591cc81b1a5b5a5d605a1b6044820152606490fd5b835162461bcd60e51b8152602081840152600f818b01526e5061796d656e7420746f6f206c6f7760881b6044820152606490fd5b508251633ee5aeb560e01b8152fd5b8680fd5b8580fd5b83823461013e578160031936011261013e5760015490516001600160a01b039091168152602090f35b83823461013e578160031936011261013e576020906003549051908152f35b5082903461013e578060031936011261013e578235602435936105a261065b565b848210156105e457507f9f1d283d4b708ff688ee9a37f3050c7e266d62fc0268408cd840afabeb91ef649293816002558060035582519182526020820152a180f35b606490602084519162461bcd60e51b8352820152600e60248201526d496e76616c6964206c696d69747360901b6044820152fd5b84903461013e578160031936011261013e577f00000000000000000000000000000000000000000000000000000000000000006001600160a01b03168152602090f35b5f546001600160a01b0316330361066e57565b60405163118cdaa760e01b8152336004820152602490fdfea26469706673582212206d46e9d9189c7cf7cf4e94e853b355ac32f1ea6bad1a96ae2f478b8df02b7cc364736f6c63430008140033","linkReferences":{}},"methodIdentifiers":{"chargeX402(uint256,string)":"638cb99b","maxPaymentPerPrompt()":"54137030","minPaymentPerPrompt()":"a4db1a38","owner()":"8da5cb5b","paymentToken()":"3013ce29","renounceOwnership()":"715018a6","transferOwnership(address)":"f2fde38b","treasury()":"61d027b3","updatePaymentLimits(uint256,uint256)":"53aa6536","updateTreasury(address)":"7f51bb1f"},"id":29}