{"abi":[{"type":"constructor","inputs":[{"name":"_entryPoint","type":"address","internalType":"address"},{"name":"_micropaymentManager","type":"address","internalType":"address"}],"stateMutability":"nonpayable"},{"type":"receive","stateMutability":"payable"},{"type":"function","name":"POST_OP_GAS_LIMIT","inputs":[],"outputs":[{"name":"","type":"uint256","internalType":"uint256"}],"stateMutability":"view"},{"type":"function","name":"VERIFICATION_GAS_LIMIT","inputs":[],"outputs":[{"name":"","type":"uint256","internalType":"uint256"}],"stateMutability":"view"},{"type":"function","name":"allowedAccounts","inputs":[{"name":"","type":"address","internalType":"address"}],"outputs":[{"name":"","type":"bool","internalType":"bool"}],"stateMutability":"view"},{"type":"function","name":"deposit","inputs":[],"outputs":[],"stateMutability":"payable"},{"type":"function","name":"entryPoint","inputs":[],"outputs":[{"name":"","type":"address","internalType":"contract IEntryPoint"}],"stateMutability":"view"},{"type":"function","name":"getDeposit","inputs":[],"outputs":[{"name":"","type":"uint256","internalType":"uint256"}],"stateMutability":"view"},{"type":"function","name":"micropaymentManager","inputs":[],"outputs":[{"name":"","type":"address","internalType":"address"}],"stateMutability":"view"},{"type":"function","name":"owner","inputs":[],"outputs":[{"name":"","type":"address","internalType":"address"}],"stateMutability":"view"},{"type":"function","name":"postOp","inputs":[{"name":"mode","type":"uint8","internalType":"enum IPaymaster.PostOpMode"},{"name":"context","type":"bytes","internalType":"bytes"},{"name":"actualGasCost","type":"uint256","internalType":"uint256"},{"name":"actualUserOpFeePerGas","type":"uint256","internalType":"uint256"}],"outputs":[],"stateMutability":"nonpayable"},{"type":"function","name":"renounceOwnership","inputs":[],"outputs":[],"stateMutability":"nonpayable"},{"type":"function","name":"setAccountAllowed","inputs":[{"name":"_account","type":"address","internalType":"address"},{"name":"_allowed","type":"bool","internalType":"bool"}],"outputs":[],"stateMutability":"nonpayable"},{"type":"function","name":"transferOwnership","inputs":[{"name":"newOwner","type":"address","internalType":"address"}],"outputs":[],"stateMutability":"nonpayable"},{"type":"function","name":"updateMicropaymentManager","inputs":[{"name":"_newManager","type":"address","internalType":"address"}],"outputs":[],"stateMutability":"nonpayable"},{"type":"function","name":"validatePaymasterUserOp","inputs":[{"name":"userOp","type":"tuple","internalType":"struct PackedUserOperation","components":[{"name":"sender","type":"address","internalType":"address"},{"name":"nonce","type":"uint256","internalType":"uint256"},{"name":"initCode","type":"bytes","internalType":"bytes"},{"name":"callData","type":"bytes","internalType":"bytes"},{"name":"accountGasLimits","type":"bytes32","internalType":"bytes32"},{"name":"preVerificationGas","type":"uint256","internalType":"uint256"},{"name":"gasFees","type":"bytes32","internalType":"bytes32"},{"name":"paymasterAndData","type":"bytes","internalType":"bytes"},{"name":"signature","type":"bytes","internalType":"bytes"}]},{"name":"userOpHash","type":"bytes32","internalType":"bytes32"},{"name":"maxCost","type":"uint256","internalType":"uint256"}],"outputs":[{"name":"context","type":"bytes","internalType":"bytes"},{"name":"validationData","type":"uint256","internalType":"uint256"}],"stateMutability":"nonpayable"},{"type":"function","name":"withdrawTo","inputs":[{"name":"_to","type":"address","internalType":"address payable"},{"name":"_amount","type":"uint256","internalType":"uint256"}],"outputs":[],"stateMutability":"nonpayable"},{"type":"event","name":"AccountAllowed","inputs":[{"name":"account","type":"address","indexed":true,"internalType":"address"},{"name":"allowed","type":"bool","indexed":false,"internalType":"bool"}],"anonymous":false},{"type":"event","name":"Deposited","inputs":[{"name":"sender","type":"address","indexed":true,"internalType":"address"},{"name":"amount","type":"uint256","indexed":false,"internalType":"uint256"}],"anonymous":false},{"type":"event","name":"MicropaymentManagerUpdated","inputs":[{"name":"oldManager","type":"address","indexed":true,"internalType":"address"},{"name":"newManager","type":"address","indexed":true,"internalType":"address"}],"anonymous":false},{"type":"event","name":"OwnershipTransferred","inputs":[{"name":"previousOwner","type":"address","indexed":true,"internalType":"address"},{"name":"newOwner","type":"address","indexed":true,"internalType":"address"}],"anonymous":false},{"type":"event","name":"Withdrawn","inputs":[{"name":"to","type":"address","indexed":true,"internalType":"address"},{"name":"amount","type":"uint256","indexed":false,"internalType":"uint256"}],"anonymous":false},{"type":"error","name":"OwnableInvalidOwner","inputs":[{"name":"owner","type":"address","internalType":"address"}]},{"type":"error","name":"OwnableUnauthorizedAccount","inputs":[{"name":"account","type":"address","internalType":"address"}]}],"bytecode":{"object":"0x60a03461018257610cbb90601f38839003908101601f19168201906001600160401b03821183831017610186578083916040958694855283398101031261018257610055602061004e8361019a565b920161019a565b331561016b575f8054336001600160a01b03198083168217845586519590946001600160a01b03949093859391908416907f8be0079c531659141344cd1fd0a4f28419497f9722a3daafe3b4186f6b6457e09080a3169384156101345750169182156100fe57608052600154161760015551610b0c90816101af8239608051818181601d015281816102ac015281816103b50152818161044d015281816105d201526109810152f35b835162461bcd60e51b815260206004820152600f60248201526e24b73b30b634b21036b0b730b3b2b960891b6044820152606490fd5b62461bcd60e51b8152602060048201526012602482015271125b9d985b1a5908115b9d1c9e541bda5b9d60721b6044820152606490fd5b8251631e4fbdf760e01b81525f6004820152602490fd5b5f80fd5b634e487b7160e01b5f52604160045260245ffd5b51906001600160a01b03821682036101825756fe60406080815260049081361015610090575b361561001b575f80fd5b7f00000000000000000000000000000000000000000000000000000000000000006001600160a01b031691823b1561008c575f90602483518095819363b760faf960e01b8352309083015234905af1908115610083575061007857005b61008190610a8c565b005b513d5f823e3d90fd5b5f80fd5b5f803560e01c8063205c28781461094f57806327dee4c014610926578063424ca4ff1461087757806352b7512c14610590578063715018a6146105375780637c627b21146104df5780637d67cbab146104c15780638b809bb7146104a45780638da5cb5b1461047c578063b0d691fe14610438578063c399ec8814610386578063d0e30db014610295578063e04610ed14610257578063f2fde38b146101c55763fe611f8b146101405750610011565b90346101c157806003193601126101c157610159610a4b565b602435908115158092036101bd577fb75765c137e39e4c7ee0d658642e7ba36f0c75d76bf64c6ec4eacf24a3a35b8391602091610194610a61565b6001600160a01b031680865260028352848620805460ff191660ff84161790559351908152a280f35b8380fd5b5080fd5b509134610253576020366003190112610253576101e0610a4b565b906101e9610a61565b6001600160a01b0391821692831561023d5750505f54826bffffffffffffffffffffffff60a01b8216175f55167f8be0079c531659141344cd1fd0a4f28419497f9722a3daafe3b4186f6b6457e05f80a380f35b51631e4fbdf760e01b8152908101849052602490fd5b8280fd5b5090346101c15760203660031901126101c15760209160ff9082906001600160a01b03610282610a4b565b1681526002855220541690519015158152f35b5091826003193601126102535734156103545782907f00000000000000000000000000000000000000000000000000000000000000006001600160a01b031690813b15610253578290602485518094819363b760faf960e01b8352309083015234905af1801561034757610333575b5050513481527f2da466a7b24304f47e87fa2e1e5a81b9831ce54fec19055ce277ca2f39ba42c460203392a280f35b61033c90610a8c565b6101c157815f610304565b50505051903d90823e3d90fd5b6020606492519162461bcd60e51b8352820152600d60248201526c09aeae6e840e6cadcc8408aa89609b1b6044820152fd5b5091903461025357826003193601126102535780516370a0823160e01b815230928101929092526020826024817f00000000000000000000000000000000000000000000000000000000000000006001600160a01b03165afa91821561042e5783926103f7575b6020838351908152f35b9091506020813d8211610426575b8161041260209383610ab4565b81010312610253576020925051905f6103ed565b3d9150610405565b81513d85823e3d90fd5b5090346101c157816003193601126101c157517f00000000000000000000000000000000000000000000000000000000000000006001600160a01b03168152602090f35b5090346101c157816003193601126101c157905490516001600160a01b039091168152602090f35b5090346101c157816003193601126101c1576020905161c3508152f35b5090346101c157816003193601126101c15760209051620186a08152f35b5082346101c15760803660031901126101c1576003813510156101c1576024359067ffffffffffffffff908183116101bd57366023840112156101bd5782013590811161025357369101602401116105345780f35b80fd5b5034610534578060031936011261053457610550610a61565b5f80546001600160a01b0319811682556001600160a01b03167f8be0079c531659141344cd1fd0a4f28419497f9722a3daafe3b4186f6b6457e08280a380f35b5034610534576060916003199183833601126105345784359267ffffffffffffffff80851161025357843603610120838201126101bd576001600160a01b03957f0000000000000000000000000000000000000000000000000000000000000000871633036108425760648101359160221901821215610809570191878301359082821161080957602491803603838601136108015789811061080d57808a1161080157889085019185848401930301126108095760288401359387851680950361008c5760688101359084821161080557019681604789011215610801576028880135948486116107ef57875191602096601f199a610697898d601f8501160186610ab4565b81855288850195604883830101116107eb57818a9260488b930188378501015260015416036107a95751905163ffffffff60e01b90818116928b8110610795575b505016639c73466560e01b0161076157845197838901928311898410176107505784888a868a8a88815285845280519586938285528551809386015281955b8387106107385750849550818784601f969701015285015201168101030190f35b86810182015189880189015295810195889550610717565b604190634e487b7160e01b5f52525ffd5b8760106064928588519362461bcd60e51b85528401528201526f24b73b30b634b210333ab731ba34b7b760811b6044820152fd5b8b0360031b82901b16811691505f806106d8565b865162461bcd60e51b8152808b018690526017818501527f496e76616c69642074617267657420636f6e74726163740000000000000000006044820152606490fd5b8980fd5b8360418c634e487b7160e01b5f52525ffd5b8580fd5b8680fd5b8480fd5b865162461bcd60e51b81526020818c01526010818501526f496e76616c69642063616c6c4461746160801b6044820152606490fd5b855162461bcd60e51b81526020818b0152600f60248201526e13db9b1e48115b9d1c9e541bda5b9d608a1b6044820152606490fd5b50913461025357602036600319011261025357610892610a4b565b9061089b610a61565b6001600160a01b039182169283156108f1575050600154826bffffffffffffffffffffffff60a01b821617600155167fb6eabe41d93f16cd402605146e3a007b443c991eb97693067ee5fd565633736c8380a380f35b906020606492519162461bcd60e51b8352820152600f60248201526e24b73b30b634b21036b0b730b3b2b960891b6044820152fd5b5090346101c157816003193601126101c15760015490516001600160a01b039091168152602090f35b5091903461025357806003193601126102535761096a610a4b565b9060243591610977610a61565b6001600160a01b037f0000000000000000000000000000000000000000000000000000000000000000811691869190833b1561025357604490838651958694859363040b850f60e31b855216809a8401528860248401525af18015610a4157610a09575b507f7084f5476618d8e60b11ef0d7d3f06914655adb8793e28ff7f018d4c76d505d59160209151908152a280f35b9160209194610a387f7084f5476618d8e60b11ef0d7d3f06914655adb8793e28ff7f018d4c76d505d594610a8c565b949150916109db565b82513d87823e3d90fd5b600435906001600160a01b038216820361008c57565b5f546001600160a01b03163303610a7457565b60405163118cdaa760e01b8152336004820152602490fd5b67ffffffffffffffff8111610aa057604052565b634e487b7160e01b5f52604160045260245ffd5b90601f8019910116810190811067ffffffffffffffff821117610aa05760405256fea26469706673582212205ce2484899372fb81a7b53e55bcaea3f132e2efe085cd84fa9693ddad071ab0664736f6c63430008140033","linkReferences":{}},"methodIdentifiers":{"POST_OP_GAS_LIMIT()":"8b809bb7","VERIFICATION_GAS_LIMIT()":"7d67cbab","allowedAccounts(address)":"e04610ed","deposit()":"d0e30db0","entryPoint()":"b0d691fe","getDeposit()":"c399ec88","micropaymentManager()":"27dee4c0","owner()":"8da5cb5b","postOp(uint8,bytes,uint256,uint256)":"7c627b21","renounceOwnership()":"715018a6","setAccountAllowed(address,bool)":"fe611f8b","transferOwnership(address)":"f2fde38b","updateMicropaymentManager(address)":"424ca4ff","validatePaymasterUserOp((address,uint256,bytes,bytes,bytes32,uint256,bytes32,bytes,bytes),bytes32,uint256)":"52b7512c","withdrawTo(address,uint256)":"205c2878"},"id":30}