{"abi":[{"type":"constructor","inputs":[{"name":"_merkleStorage","type":"address","internalType":"address"},{"name":"_escrow","type":"address","internalType":"address"}],"stateMutability":"nonpayable"},{"type":"function","name":"addVerifier","inputs":[{"name":"verifier","type":"address","internalType":"address"}],"outputs":[],"stateMutability":"nonpayable"},{"type":"function","name":"approvePayout","inputs":[{"name":"requestId","type":"string","internalType":"string"},{"name":"approved","type":"bool","internalType":"bool"}],"outputs":[],"stateMutability":"nonpayable"},{"type":"function","name":"authorizedVerifiers","inputs":[{"name":"","type":"address","internalType":"address"}],"outputs":[{"name":"","type":"bool","internalType":"bool"}],"stateMutability":"view"},{"type":"function","name":"batchApprovePayout","inputs":[{"name":"requestIds","type":"string[]","internalType":"string[]"},{"name":"approvals","type":"bool[]","internalType":"bool[]"}],"outputs":[],"stateMutability":"nonpayable"},{"type":"function","name":"escrow","inputs":[],"outputs":[{"name":"","type":"address","internalType":"contract EscrowAndYield"}],"stateMutability":"view"},{"type":"function","name":"getMilestonePayouts","inputs":[{"name":"projectId","type":"string","internalType":"string"},{"name":"milestoneId","type":"string","internalType":"string"}],"outputs":[{"name":"","type":"string[]","internalType":"string[]"}],"stateMutability":"view"},{"type":"function","name":"getPayoutRequest","inputs":[{"name":"requestId","type":"string","internalType":"string"}],"outputs":[{"name":"","type":"tuple","internalType":"struct MilestoneManager.PayoutRequest","components":[{"name":"projectId","type":"string","internalType":"string"},{"name":"milestoneId","type":"string","internalType":"string"},{"name":"submilestoneId","type":"string","internalType":"string"},{"name":"contributor","type":"address","internalType":"address"},{"name":"amount","type":"uint256","internalType":"uint256"},{"name":"merkleProof","type":"bytes32[]","internalType":"bytes32[]"},{"name":"prUrl","type":"string","internalType":"string"},{"name":"aiApproved","type":"bool","internalType":"bool"},{"name":"paid","type":"bool","internalType":"bool"},{"name":"requestedAt","type":"uint256","internalType":"uint256"},{"name":"processedAt","type":"uint256","internalType":"uint256"}]}],"stateMutability":"view"},{"type":"function","name":"getPayoutStatus","inputs":[{"name":"requestId","type":"string","internalType":"string"}],"outputs":[{"name":"requested","type":"bool","internalType":"bool"},{"name":"approved","type":"bool","internalType":"bool"},{"name":"paid","type":"bool","internalType":"bool"},{"name":"processedAt","type":"uint256","internalType":"uint256"}],"stateMutability":"view"},{"type":"function","name":"isVerifier","inputs":[{"name":"verifier","type":"address","internalType":"address"}],"outputs":[{"name":"","type":"bool","internalType":"bool"}],"stateMutability":"view"},{"type":"function","name":"merkleStorage","inputs":[],"outputs":[{"name":"","type":"address","internalType":"contract MerkleCommitStorage"}],"stateMutability":"view"},{"type":"function","name":"milestonePayouts","inputs":[{"name":"","type":"string","internalType":"string"},{"name":"","type":"string","internalType":"string"},{"name":"","type":"uint256","internalType":"uint256"}],"outputs":[{"name":"","type":"string","internalType":"string"}],"stateMutability":"view"},{"type":"function","name":"owner","inputs":[],"outputs":[{"name":"","type":"address","internalType":"address"}],"stateMutability":"view"},{"type":"function","name":"payoutRequests","inputs":[{"name":"","type":"string","internalType":"string"}],"outputs":[{"name":"projectId","type":"string","internalType":"string"},{"name":"milestoneId","type":"string","internalType":"string"},{"name":"submilestoneId","type":"string","internalType":"string"},{"name":"contributor","type":"address","internalType":"address"},{"name":"amount","type":"uint256","internalType":"uint256"},{"name":"prUrl","type":"string","internalType":"string"},{"name":"aiApproved","type":"bool","internalType":"bool"},{"name":"paid","type":"bool","internalType":"bool"},{"name":"requestedAt","type":"uint256","internalType":"uint256"},{"name":"processedAt","type":"uint256","internalType":"uint256"}],"stateMutability":"view"},{"type":"function","name":"rejectPayout","inputs":[{"name":"requestId","type":"string","internalType":"string"},{"name":"reason","type":"string","internalType":"string"}],"outputs":[],"stateMutability":"nonpayable"},{"type":"function","name":"removeVerifier","inputs":[{"name":"verifier","type":"address","internalType":"address"}],"outputs":[],"stateMutability":"nonpayable"},{"type":"function","name":"renounceOwnership","inputs":[],"outputs":[],"stateMutability":"nonpayable"},{"type":"function","name":"requestPayout","inputs":[{"name":"requestId","type":"string","internalType":"string"},{"name":"projectId","type":"string","internalType":"string"},{"name":"milestoneId","type":"string","internalType":"string"},{"name":"submilestoneId","type":"string","internalType":"string"},{"name":"contributor","type":"address","internalType":"address"},{"name":"amount","type":"uint256","internalType":"uint256"},{"name":"merkleProof","type":"bytes32[]","internalType":"bytes32[]"},{"name":"prUrl","type":"string","internalType":"string"}],"outputs":[],"stateMutability":"nonpayable"},{"type":"function","name":"transferOwnership","inputs":[{"name":"newOwner","type":"address","internalType":"address"}],"outputs":[],"stateMutability":"nonpayable"},{"type":"event","name":"OwnershipTransferred","inputs":[{"name":"previousOwner","type":"address","indexed":true,"internalType":"address"},{"name":"newOwner","type":"address","indexed":true,"internalType":"address"}],"anonymous":false},{"type":"event","name":"PayoutApproved","inputs":[{"name":"requestId","type":"string","indexed":true,"internalType":"string"},{"name":"verifier","type":"address","indexed":true,"internalType":"address"},{"name":"approved","type":"bool","indexed":false,"internalType":"bool"}],"anonymous":false},{"type":"event","name":"PayoutCompleted","inputs":[{"name":"requestId","type":"string","indexed":true,"internalType":"string"},{"name":"projectId","type":"string","indexed":true,"internalType":"string"},{"name":"milestoneId","type":"string","indexed":true,"internalType":"string"},{"name":"submilestoneId","type":"string","indexed":false,"internalType":"string"},{"name":"contributor","type":"address","indexed":false,"internalType":"address"},{"name":"amount","type":"uint256","indexed":false,"internalType":"uint256"}],"anonymous":false},{"type":"event","name":"PayoutRejected","inputs":[{"name":"requestId","type":"string","indexed":true,"internalType":"string"},{"name":"verifier","type":"address","indexed":true,"internalType":"address"},{"name":"reason","type":"string","indexed":false,"internalType":"string"}],"anonymous":false},{"type":"event","name":"PayoutRequested","inputs":[{"name":"requestId","type":"string","indexed":true,"internalType":"string"},{"name":"projectId","type":"string","indexed":true,"internalType":"string"},{"name":"milestoneId","type":"string","indexed":true,"internalType":"string"},{"name":"submilestoneId","type":"string","indexed":false,"internalType":"string"},{"name":"contributor","type":"address","indexed":false,"internalType":"address"},{"name":"amount","type":"uint256","indexed":false,"internalType":"uint256"},{"name":"prUrl","type":"string","indexed":false,"internalType":"string"}],"anonymous":false},{"type":"error","name":"OwnableInvalidOwner","inputs":[{"name":"owner","type":"address","internalType":"address"}]},{"type":"error","name":"OwnableUnauthorizedAccount","inputs":[{"name":"account","type":"address","internalType":"address"}]},{"type":"error","name":"ReentrancyGuardReentrantCall","inputs":[]}],"bytecode":{"object":"0x60803462000197576200234f90601f38839003908101601f19168201906001600160401b038211838310176200019b578083916040958694855283398101031262000197576200005d60206200005583620001af565b9201620001af565b331562000180575f8054336001600160a01b03198083168217845586519590946001600160a01b03949093859391908416907f8be0079c531659141344cd1fd0a4f28419497f9722a3daafe3b4186f6b6457e09080a360017f9b779b17422d0df92223018b32b4d1fa46e071723d6817e2486d003becc55f0055169384156200013e575016918215620001095781600154161760015560025416176002555161218a9081620001c58239f35b835162461bcd60e51b815260206004820152600e60248201526d496e76616c696420657363726f7760901b6044820152606490fd5b62461bcd60e51b815260206004820152601660248201527f496e76616c6964204d65726b6c652073746f72616765000000000000000000006044820152606490fd5b8251631e4fbdf760e01b81525f6004820152602490fd5b5f80fd5b634e487b7160e01b5f52604160045260245ffd5b51906001600160a01b0382168203620001975756fe6080806040526004361015610012575f80fd5b5f3560e01c9081630b1598d8146117ff5750806310ef1591146116dd57806333105218146106e25780634a87303d1461149b5780634e32010e1461147357806350a6e31c146108fd578063715018a6146108a65780638da5cb5b1461087f5780639000b3d6146107fd5780639334ed141461071f5780639a891716146106e2578063a2100211146105bf578063b1a1322c146104d6578063ca2dfd0a14610495578063d665b65314610415578063e2fdcc17146103ed578063e317d5b0146101705763f2fde38b146100e2575f80fd5b3461016c57602036600319011261016c576100fb611b17565b610103611b86565b6001600160a01b03908116908115610154575f54826bffffffffffffffffffffffff60a01b8216175f55167f8be0079c531659141344cd1fd0a4f28419497f9722a3daafe3b4186f6b6457e05f80a3005b604051631e4fbdf760e01b81525f6004820152602490fd5b5f80fd5b3461016c57602036600319011261016c576004356001600160401b03811161016c576101a260209136906004016118e1565b91905f6101406040516101b48161199e565b6060815260608582015260606040820152826060820152826080820152606060a0820152606060c08201528260e082015282610100820152826101208201520152826040519384928337810160038152030190206040516102148161199e565b61021d82611a76565b815261022b60018301611a76565b602082015261023c60028301611a76565b604082015260018060a01b03600383015416606082015260048201546080820152600582019160405180602085549182815201945f5260205f20905f5b8181106103d757505050610292816009949503826119ba565b60a08401526102a360068201611a76565b60c084015260ff6007820154818116151560e086015260081c16151561010084015260088101546101208401520154610140820152604051602081526103296103136102fd84516101606020860152610180850190611979565b6020850151848203601f19016040860152611979565b6040840151838203601f19016060850152611979565b9160018060a01b036060820151166080830152608081015160a083015260a081015192601f198382030160c0840152602080855192838152019401905f5b8181106103c15750505061014061038f839460c0840151601f198683030160e0870152611979565b9160e0810151151561010085015261010081015115156101208501526101208101518285015201516101608301520390f35b8251865260209586019590920191600101610367565b8254875260209096019560019283019201610279565b3461016c575f36600319011261016c576002546040516001600160a01b039091168152602090f35b3461016c57602036600319011261016c576004356001600160401b03811161016c57602061044960809236906004016118e1565b919082604051938492833781016003815203019020600881015415159060ff60096007830154920154916040519384528181161515602085015260081c16151560408301526060820152f35b3461016c57602036600319011261016c576104ae611b17565b6104b6611b86565b6001600160a01b03165f908152600560205260409020805460ff19169055005b3461016c577ff85dfba0cd30838b4f84770d5b95043d0aa77b48d261c794e630aa4b33b945336105a96105083661190e565b949293919093335f52600560205261052660ff60405f205416611cd6565b61052e611ca7565b60405182828237602081848101600381520301902061055260088201541515611d22565b60078101600981549261056b60ff8560081c1615611c02565b0191610578835415611d62565b60ff1916905542905581604051928392833781015f8152039020926040519182916020835233966020840191611be2565b0390a360015f8051602061213583398151915255005b3461016c57604036600319011261016c576004356001600160401b03811161016c576105ef9036906004016118e1565b60243580151580820361016c57335f52600560205261061460ff60405f205416611cd6565b61061c611ca7565b60405183858237602081858101600381520301902061064060088201541515611d22565b61067a836009600784019361065c60ff865460081c1615611c02565b0192610669845415611d62565b9060ff801983541691151516179055565b42905560405183858237808481015f81520390206040519182527f15be7599b412cccd6f9850473bfca2ed5288cd89dc8ac59990dd6f69d47f93d060203393a36106d2575b60015f8051602061213583398151915255005b6106db91611eb7565b80806106bf565b3461016c57602036600319011261016c576001600160a01b03610703611b17565b165f526005602052602060ff60405f2054166040519015158152f35b3461016c57606036600319011261016c576001600160401b0360043581811161016c57610750903690600401611a20565b9060243590811161016c57610769903690600401611a20565b6107a8604435916040519081855195818761078b6020998a9788809601611958565b810160048152030190208260405194838680955193849201611958565b82019081520301902090815481101561016c576107c491611b5d565b6107ea576107d190611a76565b906107e6604051928284938452830190611979565b0390f35b634e487b7160e01b5f525f60045260245ffd5b3461016c57602036600319011261016c57610816611b17565b61081e611b86565b6001600160a01b03168015610847575f908152600560205260409020805460ff19166001179055005b60405162461bcd60e51b815260206004820152601060248201526f24b73b30b634b2103b32b934b334b2b960811b6044820152606490fd5b3461016c575f36600319011261016c575f546040516001600160a01b039091168152602090f35b3461016c575f36600319011261016c576108be611b86565b5f80546001600160a01b0319811682556001600160a01b03167f8be0079c531659141344cd1fd0a4f28419497f9722a3daafe3b4186f6b6457e08280a3005b3461016c5761010036600319011261016c576004356001600160401b03811161016c5761092e9036906004016118e1565b906024356001600160401b03811161016c5761094e9036906004016118e1565b6044356001600160401b03811161016c5761096d9036906004016118e1565b90936064356001600160401b03811161016c5761098e9036906004016118e1565b90939092906084356001600160a01b038116900361016c5760c4356001600160401b03811161016c576109c5903690600401611b2d565b98909360e4356001600160401b03811161016c576109e79036906004016118e1565b9a90956109f2611ca7565b8315611439576084356001600160a01b0316156113fe5760a435156113b9578b156113825760086040518585823760038682015260208187810103019020015461134457898b610a93610a8060018060a01b0360015416928a610a6e604051966340812a5560e11b885260a060048901528c60a4890191611be2565b86810360031901602488015291611be2565b8381036003190160448501528b8d611be2565b60a43560648401528281036003190160848401528481526001600160fb1b03851161016c5760209183838180948960051b89848301378960051b010301915afa9081156112de575f91611325575b50156112e957856020610b298d8d89610b4d8f8f610b3b60018060a01b0360025416966040519a8b998a988998635ce9926b60e11b8a52608060048b015260848a0191611be2565b87810360031901602489015291611be2565b84810360031901604486015291611be2565b6084356001600160a01b0316606483015203915afa80156112de57610b7a915f916112af575b5015611c02565b60405191610b878361199e565b610b9236878d6119db565b8352610b9f36888e6119db565b6020840152610baf368a8c6119db565b60408401526084356001600160a01b0316606084015260a4356080840152610bd681611c3d565b91610be460405193846119ba565b8183526020830190368360051b82011161016c5780915b8360051b8201831061129f575050505060a0820152610c1b368c886119db565b60c08201525f60e08201525f610100820152426101208201525f6101408201526040518383823760208185810160038152030190209080518051906001600160401b03821161106b578190610c7a82610c748754611a3e565b87611c54565b602090601f8311600114611237575f9261122c575b50508160011b915f199060031b1c19161782555b60208101518051906001600160401b03821161106b578190610cd582610ccc6001880154611a3e565b60018801611c54565b602090601f83116001146111be575f926111b3575b50508160011b915f199060031b1c19161760018301555b60408101518051906001600160401b03821161106b578190610d3382610d2a6002880154611a3e565b60028801611c54565b602090601f8311600114611145575f9261113a575b50508160011b915f199060031b1c19161760028301555b6003820160018060a01b036060830151166bffffffffffffffffffffffff60a01b8254161790556080810151600483015560a08101518051906001600160401b03821161106b57600160401b821161106b576005840154826005860155808310611110575b50602001600584015f5260205f205f5b8381106110fc575050505060c08101518051906001600160401b03821161106b57610e0f82610e066006870154611a3e565b60068701611c54565b602090601f831160011461108a57918060099492610140945f9261107f575b50508160011b915f199060031b1c19161760068501555b60078401610e6560e08301511515829060ff801983541691151516179055565b610100820151151561ff0082549160081b169061ff00191617905561012081015160088501550151910155610eaf604051848a82376020818681016004815203019020858b611bb1565b8054600160401b81101561106b57610ecc91600182018155611b5d565b6107ea576001600160401b03831161106b57610ef283610eec8354611a3e565b83611c54565b5f601f8411600114610fdb57918391610fba96947f6df578742842c7ef74b7d300c235b314036b070ab5e44d6be8def319f12381679a999896945f91610fd0575b508360011b905f198560031b1c19161790555b81604051928392833781015f81520390209781604051928392833781015f81520390209781604051928392833781015f815203902097610f93604051958695608087526080870191611be2565b6084356001600160a01b0316602086015260a4356040860152848103606086015291611be2565b0390a460015f8051602061213583398151915255005b90508201358e610f33565b815f5260205f20905f5b601f19861681106110535750917f6df578742842c7ef74b7d300c235b314036b070ab5e44d6be8def319f12381679998979593918593610fba9896601f1981161061103a575b5050600183811b019055610f46565b8301355f19600386901b60f8161c191690558d8061102b565b90916020600181928588013581550193019101610fe5565b634e487b7160e01b5f52604160045260245ffd5b015190505f80610e2e565b90600685015f5260205f20915f5b601f19851681106110e4575092600994926001926101409583601f198116106110cc575b505050811b016006850155610e45565b01515f1960f88460031b161c191690555f80806110bc565b91926020600181928685015181550194019201611098565b600190602084519401938184015501610dd4565b600585015f5260205f20908382015b818301811061112f575050610dc4565b5f815560010161111f565b015190508e80610d48565b9250600285015f5260205f20905f935b601f1984168510611198576001945083601f19811610611180575b505050811b016002830155610d5f565b01515f1960f88460031b161c191690558e8080611170565b81810151835560209485019460019093019290910190611155565b015190508e80610cea565b9250600185015f5260205f20905f935b601f1984168510611211576001945083601f198116106111f9575b505050811b016001830155610d01565b01515f1960f88460031b161c191690558e80806111e9565b818101518355602094850194600190930192909101906111ce565b015190508e80610c8f565b9250845f5260205f20905f935b601f1984168510611284576001945083601f1981161061126c575b505050811b018255610ca3565b01515f1960f88460031b161c191690558e808061125f565b81810151835560209485019460019093019290910190611244565b8235815260209283019201610bfb565b6112d1915060203d6020116112d7575b6112c981836119ba565b810190611bca565b8e610b73565b503d6112bf565b6040513d5f823e3d90fd5b60405162461bcd60e51b815260206004820152601460248201527324b73b30b634b21026b2b935b63290383937b7b360611b6044820152606490fd5b61133e915060203d6020116112d7576112c981836119ba565b8d610ae1565b60405162461bcd60e51b81526020600482015260166024820152755265717565737420616c72656164792065786973747360501b6044820152606490fd5b60405162461bcd60e51b815260206004820152600f60248201526e141488155493081c995c5d5a5c9959608a1b6044820152606490fd5b60405162461bcd60e51b815260206004820152601760248201527f416d6f756e74206d75737420626520706f7369746976650000000000000000006044820152606490fd5b60405162461bcd60e51b815260206004820152601360248201527224b73b30b634b21031b7b73a3934b13aba37b960691b6044820152606490fd5b60405162461bcd60e51b8152602060048201526012602482015271125b9d985b1a59081c995c5d595cdd08125160721b6044820152606490fd5b3461016c575f36600319011261016c576001546040516001600160a01b039091168152602090f35b3461016c57604036600319011261016c576001600160401b0360043581811161016c576114cc903690600401611b2d565b602492833590811161016c576114e6903690600401611b2d565b929092335f526020936005855260ff6115048160405f205416611cd6565b61150c611ca7565b8285036116a157841561166f575f5b8581106115355760015f8051602061213583398151915255005b866115418288886120d6565b919082604051938492833781016003815203019020600883818301541591821561165e575b50508015611651575b61164b5761159e611589611584848888612117565b612127565b600783019060ff801983541691151516179055565b6009429101556115af8187876120d6565b6115bd611584848888612117565b9181604051928392833781015f815203902060405191151582527f15be7599b412cccd6f9850473bfca2ed5288cd89dc8ac59990dd6f69d47f93d0893393a361160a611584828686612117565b611632575b5f19811461161f5760010161151b565b87634e487b7160e01b5f5260116004525ffd5b6116466116408288886120d6565b90611eb7565b61160f565b5061160f565b506009810154151561156f565b6007840154901c169050838b611566565b60405162461bcd60e51b815260048101879052600b818901526a08adae0e8f240c4c2e8c6d60ab1b6044820152606490fd5b60405162461bcd60e51b81526004810187905260158189015274082e4e4c2f240d8cadccee8d040dad2e6dac2e8c6d605b1b6044820152606490fd5b3461016c57602036600319011261016c576004356001600160401b03811161016c5761172860206117156117a5933690600401611a20565b8160405193828580945193849201611958565b8101600381520301902061173b81611a76565b9061174860018201611a76565b61175460028301611a76565b9160ff6117d960018060a01b03600384015416600484015461177860068601611a76565b906117c16007870154986117b3600960088a0154990154996040519d8e9d8e610140908181520190611979565b8d810360208f015290611979565b908b820360408d0152611979565b9260608a0152608089015287820360a0890152611979565b93818116151560c087015260081c16151560e08501526101008401526101208301520390f35b3461016c5761182e816118113661190e565b929184928192953781016004815260209586910301902091611bb1565b9081549161183b83611c3d565b9261184960405194856119ba565b80845282840180925f52835f205f915b8383106118bf5750505050604051918083019381845251809452604083019360408160051b85010192915f955b8287106118935785850386f35b9091929382806118af600193603f198a82030186528851611979565b9601920196019592919092611886565b60018681926118d0859a999a611a76565b815201920192019190959495611859565b9181601f8401121561016c578235916001600160401b03831161016c576020838186019501011161016c57565b604060031982011261016c576001600160401b039160043583811161016c578261193a916004016118e1565b9390939260243591821161016c57611954916004016118e1565b9091565b5f5b8381106119695750505f910152565b818101518382015260200161195a565b9060209161199281518092818552858086019101611958565b601f01601f1916010190565b61016081019081106001600160401b0382111761106b57604052565b90601f801991011681019081106001600160401b0382111761106b57604052565b9291926001600160401b03821161106b5760405191611a04601f8201601f1916602001846119ba565b82948184528183011161016c578281602093845f960137010152565b9080601f8301121561016c57816020611a3b933591016119db565b90565b90600182811c92168015611a6c575b6020831014611a5857565b634e487b7160e01b5f52602260045260245ffd5b91607f1691611a4d565b9060405191825f825492611a8984611a3e565b9081845260019485811690815f14611af45750600114611ab4575b5050611ab2925003836119ba565b565b909391505f52602090815f20935f915b818310611adc575050611ab293508201015f80611aa4565b85548884018501529485019487945091830191611ac4565b915050611ab294506020925060ff191682840152151560051b8201015f80611aa4565b600435906001600160a01b038216820361016c57565b9181601f8401121561016c578235916001600160401b03831161016c576020808501948460051b01011161016c57565b8054821015611b72575f5260205f2001905f90565b634e487b7160e01b5f52603260045260245ffd5b5f546001600160a01b03163303611b9957565b60405163118cdaa760e01b8152336004820152602490fd5b6020919283604051948593843782019081520301902090565b9081602091031261016c5751801515810361016c5790565b908060209392818452848401375f828201840152601f01601f1916010190565b15611c0957565b60405162461bcd60e51b815260206004820152600c60248201526b105b1c9958591e481c185a5960a21b6044820152606490fd5b6001600160401b03811161106b5760051b60200190565b90601f8111611c6257505050565b5f91825260208220906020601f850160051c83019410611c9d575b601f0160051c01915b828110611c9257505050565b818155600101611c86565b9092508290611c7d565b5f805160206121358339815191526002815414611cc45760029055565b604051633ee5aeb560e01b8152600490fd5b15611cdd57565b60405162461bcd60e51b815260206004820152601760248201527f4e6f7420617574686f72697a65642076657269666965720000000000000000006044820152606490fd5b15611d2957565b60405162461bcd60e51b815260206004820152601160248201527014995c5d595cdd081b9bdd08199bdd5b99607a1b6044820152606490fd5b15611d6957565b60405162461bcd60e51b8152602060048201526011602482015270105b1c9958591e481c1c9bd8d95cdcd959607a1b6044820152606490fd5b905f9291805491611db283611a3e565b9182825260019384811690815f14611e105750600114611dd3575b50505050565b90919394505f52602092835f2092845f945b838610611dfc57505050500101905f808080611dcd565b805485870183015294019385908201611de5565b9294505050602093945060ff191683830152151560051b0101905f808080611dcd565b60405180915f908054611e4581611a3e565b91600191808316908115611e9e5750600114611e65575b50505003902090565b909192505f52602090815f20905f915b848310611e8a575050505081015f8080611e5c565b805487840152869550918301918101611e75565b60ff1916865250505080151502820190505f8080611e5c565b604090815190838183378184810160038152602093849103019020916007830191825460ff8116156120a35760ff611ef39160081c1615611c02565b60018060a01b039485600254169660019283870197600288019660038901908282541660048b019c8d549160058d0199823b1561016c57918d919a928f611f5c958f611f7f90611f6f8f51998a9863508cf5d160e01b8a5260c060048b015260c48a0190611da2565b60031995868a83030160248b0152611da2565b9084888303016044890152611da2565b9d60648601526084850152838d030160a48401528c8085549d8e815201915f9d8e9687528287209287905b8282106120815750505050508383809203925af180156120775761204b575b509361203f97959361202b93612025937f606f29cbc0c88c568fc5b230516a72e12bdba9a8618af6a07d83a8ec7321c1219b999761010061ff001982541617905554169c54958286519384938437820190815203902098611e33565b98611e33565b988151958695606087526060870190611da2565b938501528301520390a4565b6001600160401b03811161206357865261203f611fc9565b634e487b7160e01b88526041600452602488fd5b87513d8a823e3d90fd5b9093965082959750829194875481520195019101928694928f948f9795611faa565b855162461bcd60e51b815260048101849052600c60248201526b139bdd08185c1c1c9bdd995960a21b6044820152606490fd5b9190811015611b725760051b81013590601e198136030182121561016c5701908135916001600160401b03831161016c57602001823603811361016c579190565b9190811015611b725760051b0190565b35801515810361016c579056fe9b779b17422d0df92223018b32b4d1fa46e071723d6817e2486d003becc55f00a2646970667358221220d3e380e7dc8dcbcfb96dd287504e0fa96146b5b7bd471c5b309e55ca480cfc9d64736f6c63430008140033","linkReferences":{}},"methodIdentifiers":{"addVerifier(address)":"9000b3d6","approvePayout(string,bool)":"a2100211","authorizedVerifiers(address)":"9a891716","batchApprovePayout(string[],bool[])":"4a87303d","escrow()":"e2fdcc17","getMilestonePayouts(string,string)":"0b1598d8","getPayoutRequest(string)":"e317d5b0","getPayoutStatus(string)":"d665b653","isVerifier(address)":"33105218","merkleStorage()":"4e32010e","milestonePayouts(string,string,uint256)":"9334ed14","owner()":"8da5cb5b","payoutRequests(string)":"10ef1591","rejectPayout(string,string)":"b1a1322c","removeVerifier(address)":"ca2dfd0a","renounceOwnership()":"715018a6","requestPayout(string,string,string,string,address,uint256,bytes32[],string)":"50a6e31c","transferOwnership(address)":"f2fde38b"},"id":31}