{"abi":[{"type":"function","name":"accountSessionKeys","inputs":[{"name":"","type":"address","internalType":"address"},{"name":"","type":"uint256","internalType":"uint256"}],"outputs":[{"name":"","type":"address","internalType":"address"}],"stateMutability":"view"},{"type":"function","name":"getAccountSessionKeys","inputs":[{"name":"_smartAccount","type":"address","internalType":"address"}],"outputs":[{"name":"","type":"address[]","internalType":"address[]"}],"stateMutability":"view"},{"type":"function","name":"getSessionKey","inputs":[{"name":"_smartAccount","type":"address","internalType":"address"},{"name":"_sessionKey","type":"address","internalType":"address"}],"outputs":[{"name":"","type":"tuple","internalType":"struct SessionKeyRegistry.SessionKey","components":[{"name":"sessionKeyAddress","type":"address","internalType":"address"},{"name":"maxSpendPerPrompt","type":"uint256","internalType":"uint256"},{"name":"maxTotalSpend","type":"uint256","internalType":"uint256"},{"name":"totalSpent","type":"uint256","internalType":"uint256"},{"name":"expiryTimestamp","type":"uint256","internalType":"uint256"},{"name":"allowedContract","type":"address","internalType":"address"},{"name":"allowedFunction","type":"bytes4","internalType":"bytes4"},{"name":"active","type":"bool","internalType":"bool"},{"name":"registeredAt","type":"uint256","internalType":"uint256"}]}],"stateMutability":"view"},{"type":"function","name":"isSessionKeyValid","inputs":[{"name":"_smartAccount","type":"address","internalType":"address"},{"name":"_sessionKey","type":"address","internalType":"address"}],"outputs":[{"name":"","type":"bool","internalType":"bool"}],"stateMutability":"view"},{"type":"function","name":"recordUsage","inputs":[{"name":"_sessionKey","type":"address","internalType":"address"},{"name":"_amount","type":"uint256","internalType":"uint256"}],"outputs":[],"stateMutability":"nonpayable"},{"type":"function","name":"registerSessionKey","inputs":[{"name":"_sessionKey","type":"address","internalType":"address"},{"name":"_maxSpendPerPrompt","type":"uint256","internalType":"uint256"},{"name":"_maxTotalSpend","type":"uint256","internalType":"uint256"},{"name":"_validDuration","type":"uint256","internalType":"uint256"},{"name":"_allowedContract","type":"address","internalType":"address"},{"name":"_allowedFunction","type":"bytes4","internalType":"bytes4"}],"outputs":[],"stateMutability":"nonpayable"},{"type":"function","name":"revokeSessionKey","inputs":[{"name":"_sessionKey","type":"address","internalType":"address"}],"outputs":[],"stateMutability":"nonpayable"},{"type":"function","name":"sessionKeys","inputs":[{"name":"","type":"address","internalType":"address"},{"name":"","type":"address","internalType":"address"}],"outputs":[{"name":"sessionKeyAddress","type":"address","internalType":"address"},{"name":"maxSpendPerPrompt","type":"uint256","internalType":"uint256"},{"name":"maxTotalSpend","type":"uint256","internalType":"uint256"},{"name":"totalSpent","type":"uint256","internalType":"uint256"},{"name":"expiryTimestamp","type":"uint256","internalType":"uint256"},{"name":"allowedContract","type":"address","internalType":"address"},{"name":"allowedFunction","type":"bytes4","internalType":"bytes4"},{"name":"active","type":"bool","internalType":"bool"},{"name":"registeredAt","type":"uint256","internalType":"uint256"}],"stateMutability":"view"},{"type":"function","name":"validateSessionKey","inputs":[{"name":"_smartAccount","type":"address","internalType":"address"},{"name":"_sessionKey","type":"address","internalType":"address"},{"name":"_targetContract","type":"address","internalType":"address"},{"name":"_functionSelector","type":"bytes4","internalType":"bytes4"},{"name":"_amount","type":"uint256","internalType":"uint256"}],"outputs":[{"name":"","type":"bool","internalType":"bool"}],"stateMutability":"view"},{"type":"event","name":"SessionKeyRegistered","inputs":[{"name":"smartAccount","type":"address","indexed":true,"internalType":"address"},{"name":"sessionKey","type":"address","indexed":true,"internalType":"address"},{"name":"maxSpendPerPrompt","type":"uint256","indexed":false,"internalType":"uint256"},{"name":"maxTotalSpend","type":"uint256","indexed":false,"internalType":"uint256"},{"name":"expiryTimestamp","type":"uint256","indexed":false,"internalType":"uint256"},{"name":"allowedContract","type":"address","indexed":false,"internalType":"address"}],"anonymous":false},{"type":"event","name":"SessionKeyRevoked","inputs":[{"name":"smartAccount","type":"address","indexed":true,"internalType":"address"},{"name":"sessionKey","type":"address","indexed":true,"internalType":"address"}],"anonymous":false},{"type":"event","name":"SessionKeyUsed","inputs":[{"name":"smartAccount","type":"address","indexed":true,"internalType":"address"},{"name":"sessionKey","type":"address","indexed":true,"internalType":"address"},{"name":"amount","type":"uint256","indexed":false,"internalType":"uint256"},{"name":"totalSpent","type":"uint256","indexed":false,"internalType":"uint256"}],"anonymous":false}],"bytecode":{"object":"0x6080806040523461001657610ac8908161001b8239f35b5f80fdfe6080604081815260049182361015610015575f80fd5b5f92833560e01c91826334c89d5a146105a957508163598d31a8146104c15781635be38fc01461043057816381e9c8d1146103c457816384f4fc6a1461034457816386375c9e1461020057816396ade1f91461014f57508063b1af1d62146100f75763f514eac614610085575f80fd5b346100f35760a03660031901126100f35761009e6108fe565b916100a7610918565b604435906001600160a01b03821682036100ef57606435926001600160e01b0319841684036100ec575091602094916100e393608435936109a9565b90519015158152f35b80fd5b8280fd5b5080fd5b50346100f357806003193601126100f3576101106108fe565b6001600160a01b0390811683526001602052818320805460243594908510156100ec57506020936101409161092e565b92905490519260031b1c168152f35b839150346100f357826003193601126100f35760ff83610120946101716108fe565b9461017a610918565b60018060a01b038097168252816020528683832091168252602052209084825416946001830154946002840154906003850154908501549160066005870154960154978551998a5260208a01528489015260608801526080870152821660a08601528163ffffffff60e01b911b1660c085015260c01c16151560e0830152610100820152f35b839150346100f357826003193601126100f35761021b6108fe565b9280610225610918565b9381519461023286610978565b81865281602087015281838701528160608701528160808701528160a08701528160c08701528160e08701528161010080970152600160a01b6001900380971682528160205286838320911682526020522081519261029084610978565b85825416958685526001830154916020860192835260028401549085870191825260038501549060608801918252850154906080880191825260058601549660a0890193858916855260c08a01968b63ffffffff60e01b998a8c861b168a5260e08d019b60c01c60ff1615158c52600601549b019a8b5282519c8d525160208d015251908b01525160608a0152516080890152511660a0870152511660c085015251151560e0840152519082015261012090f35b5050346100f35760203660031901126100f35760056103616108fe565b33845260208481528385206001600160a01b0390921680865291905291832001805461039360c082901c60ff16610a4d565b60ff60c01b19169055337f744157ccffbd293a2e8644928cd7d23d650f869b88f72d7bfea8041b76ca6bec8380a380f35b919050346100ef57806003193601126100ef57806020936103e36108fe565b6103eb610918565b6001600160a01b03918216835282875283832091168252855220600581015460c01c60ff16929083610422575b5050519015158152f35b015442111591505f80610418565b5050346100f357806003193601126100f35761044a6108fe565b907ff189528feb89b95b40e3fcc41d019cab0c8b95662b02df2a68ddf8ccd869fd6660243591338552846020528085209360018060a01b03169384865260205260038186206104a260ff600583015460c01c16610a4d565b016104ae848254610957565b809155815193845260208401523392a380f35b919050346100ef57602090816003193601126105a5576001600160a01b0391826104e96108fe565b16855260019485825282812093835193838581885491828152019081988652828620908b875b82811061058e5750505050869003601f01601f1916860197905067ffffffffffffffff88118689101761057b57509286949184868a9652828701938388525180945286019693905b8382106105645786880387f35b845181168852968201969382019390850190610557565b634e487b7160e01b845260419052602483fd5b83548816855289959094019392810192810161050f565b8380fd5b849084346100ef5760c03660031901126100ef576105c56108fe565b60249485359260448035926064988935956084359660018060a01b03948589168099036108fa5760a4359263ffffffff60e01b84168094036108f65786169a8b156108c35750891561088f5789881061085a5781156108275788156107f457338c5260208c8152878d208c8e528152878d2060050154909695949392918e9160c01c60ff166107c15750506006868a8a98979695948f8f8f906106698e9842610957565b9e8f928c8a519a8b9661067b88610978565b8588528a880193845281880194855260608801958187526080890197885260a089019a8b5260c08901998a5261010060e08a019960018b52019b428d5233835282815283832091835252209a51166bffffffffffffffffffffffff60a01b8b5416178a555160018a0155516002890155516003880155518887015588600587019351168354928d63ffffffff60a01b9151901c169160ff60c01b9051151560c01b169266ffffffffffffff60c81b16171717905551910155338b5260018452858b2090815492680100000000000000008410156107b0575050906107649160018201815561092e565b819291549060031b918a831b921b1916179055825195865285015283015260608201527f8ed452e5580108f15fc835676ec35d758f3b08489640558dab456e676451d4c960803392a380f35b634e487b7160e01b8d52604190528bfd5b7153657373696f6e206b65792065786973747360701b86916012878b8d519562461bcd60e51b8752860152840152820152fd5b846f125b9d985b1a590818dbdb9d1c9858dd60821b8e9260108760208c519562461bcd60e51b8752860152840152820152fd5b846f24b73b30b634b210323ab930ba34b7b760811b8e9260108760208c519562461bcd60e51b8752860152840152820152fd5b8471151bdd185b080f081c195c881c1c9bdb5c1d60721b8e9260128760208c519562461bcd60e51b8752860152840152820152fd5b8470125b9d985b1a59081b585e081cdc195b99607a1b8e9260118760208c519562461bcd60e51b8752860152840152820152fd5b72496e76616c69642073657373696f6e206b657960681b8e9260138760208a62461bcd60e51b8752860152840152820152fd5b8c80fd5b8b80fd5b600435906001600160a01b038216820361091457565b5f80fd5b602435906001600160a01b038216820361091457565b8054821015610943575f5260205f2001905f90565b634e487b7160e01b5f52603260045260245ffd5b9190820180921161096457565b634e487b7160e01b5f52601160045260245ffd5b610120810190811067ffffffffffffffff82111761099557604052565b634e487b7160e01b5f52604160045260245ffd5b9391909260018060a01b0393845f9616865285602052846040872091168652602052604085209360058501549260ff8460c01c1615610a445760048601544211610a4457811690831603610a3d5763ffffffff60e01b8091169160401b1603610a385760018201548111610a3857610a276002916003840154610957565b91015410610a355750600190565b90565b505090565b5050505090565b50505050505090565b15610a5457565b60405162461bcd60e51b815260206004820152601660248201527553657373696f6e206b6579206e6f742061637469766560501b6044820152606490fdfea2646970667358221220738b3e8a8074f782848b436424babaa7a487b7e5fe03ed50a2d50c17263b178e64736f6c63430008140033","linkReferences":{}},"methodIdentifiers":{"accountSessionKeys(address,uint256)":"b1af1d62","getAccountSessionKeys(address)":"598d31a8","getSessionKey(address,address)":"86375c9e","isSessionKeyValid(address,address)":"81e9c8d1","recordUsage(address,uint256)":"5be38fc0","registerSessionKey(address,uint256,uint256,uint256,address,bytes4)":"34c89d5a","revokeSessionKey(address)":"84f4fc6a","sessionKeys(address,address)":"96ade1f9","validateSessionKey(address,address,address,bytes4,uint256)":"f514eac6"},"id":32}