{"abi":[{"type":"constructor","inputs":[{"name":"_entryPoint","type":"address","internalType":"address"}],"stateMutability":"nonpayable"},{"type":"receive","stateMutability":"payable"},{"type":"function","name":"entryPoint","inputs":[],"outputs":[{"name":"","type":"address","internalType":"contract IEntryPoint"}],"stateMutability":"view"},{"type":"function","name":"execute","inputs":[{"name":"target","type":"address","internalType":"address"},{"name":"value","type":"uint256","internalType":"uint256"},{"name":"data","type":"bytes","internalType":"bytes"}],"outputs":[{"name":"","type":"bytes","internalType":"bytes"}],"stateMutability":"nonpayable"},{"type":"function","name":"getNonce","inputs":[],"outputs":[{"name":"","type":"uint256","internalType":"uint256"}],"stateMutability":"view"},{"type":"function","name":"initialize","inputs":[{"name":"_owner","type":"address","internalType":"address"},{"name":"_sessionKeyRegistry","type":"address","internalType":"address"}],"outputs":[],"stateMutability":"nonpayable"},{"type":"function","name":"owner","inputs":[],"outputs":[{"name":"","type":"address","internalType":"address"}],"stateMutability":"view"},{"type":"function","name":"registerSessionKey","inputs":[{"name":"_sessionKey","type":"address","internalType":"address"},{"name":"_maxSpendPerPrompt","type":"uint256","internalType":"uint256"},{"name":"_maxTotalSpend","type":"uint256","internalType":"uint256"},{"name":"_validDuration","type":"uint256","internalType":"uint256"},{"name":"_allowedContract","type":"address","internalType":"address"},{"name":"_allowedFunction","type":"bytes4","internalType":"bytes4"}],"outputs":[],"stateMutability":"nonpayable"},{"type":"function","name":"revokeSessionKey","inputs":[{"name":"_sessionKey","type":"address","internalType":"address"}],"outputs":[],"stateMutability":"nonpayable"},{"type":"function","name":"sessionKeyRegistry","inputs":[],"outputs":[{"name":"","type":"address","internalType":"contract SessionKeyRegistry"}],"stateMutability":"view"},{"type":"function","name":"updateSessionKeyRegistry","inputs":[{"name":"_newRegistry","type":"address","internalType":"address"}],"outputs":[],"stateMutability":"nonpayable"},{"type":"function","name":"validateUserOp","inputs":[{"name":"userOp","type":"tuple","internalType":"struct PackedUserOperation","components":[{"name":"sender","type":"address","internalType":"address"},{"name":"nonce","type":"uint256","internalType":"uint256"},{"name":"initCode","type":"bytes","internalType":"bytes"},{"name":"callData","type":"bytes","internalType":"bytes"},{"name":"accountGasLimits","type":"bytes32","internalType":"bytes32"},{"name":"preVerificationGas","type":"uint256","internalType":"uint256"},{"name":"gasFees","type":"bytes32","internalType":"bytes32"},{"name":"paymasterAndData","type":"bytes","internalType":"bytes"},{"name":"signature","type":"bytes","internalType":"bytes"}]},{"name":"userOpHash","type":"bytes32","internalType":"bytes32"},{"name":"missingAccountFunds","type":"uint256","internalType":"uint256"}],"outputs":[{"name":"validationData","type":"uint256","internalType":"uint256"}],"stateMutability":"nonpayable"},{"type":"function","name":"withdrawTo","inputs":[{"name":"_to","type":"address","internalType":"address payable"},{"name":"_amount","type":"uint256","internalType":"uint256"}],"outputs":[],"stateMutability":"nonpayable"},{"type":"event","name":"Executed","inputs":[{"name":"target","type":"address","indexed":true,"internalType":"address"},{"name":"value","type":"uint256","indexed":false,"internalType":"uint256"},{"name":"data","type":"bytes","indexed":false,"internalType":"bytes"}],"anonymous":false},{"type":"event","name":"Initialized","inputs":[{"name":"version","type":"uint64","indexed":false,"internalType":"uint64"}],"anonymous":false},{"type":"event","name":"SessionKeyRegistryUpdated","inputs":[{"name":"oldRegistry","type":"address","indexed":true,"internalType":"address"},{"name":"newRegistry","type":"address","indexed":true,"internalType":"address"}],"anonymous":false},{"type":"event","name":"SmartAccountInitialized","inputs":[{"name":"owner","type":"address","indexed":true,"internalType":"address"},{"name":"entryPoint","type":"address","indexed":true,"internalType":"address"}],"anonymous":false},{"type":"error","name":"ECDSAInvalidSignature","inputs":[]},{"type":"error","name":"ECDSAInvalidSignatureLength","inputs":[{"name":"length","type":"uint256","internalType":"uint256"}]},{"type":"error","name":"ECDSAInvalidSignatureS","inputs":[{"name":"s","type":"bytes32","internalType":"bytes32"}]},{"type":"error","name":"InvalidInitialization","inputs":[]},{"type":"error","name":"NotInitializing","inputs":[]}],"bytecode":{"object":"0x60a0346100c157601f610ffd38819003918201601f19168301916001600160401b038311848410176100c5578084926020946040528339810103126100c157516001600160a01b038116908190036100c157801561008757608052604051610f2390816100da823960805181818161012d015281816102e301528181610555015261082e0152f35b60405162461bcd60e51b8152602060048201526012602482015271125b9d985b1a5908115b9d1c9e541bda5b9d60721b6044820152606490fd5b5f80fd5b634e487b7160e01b5f52604160045260245ffdfe6040608081526004908136101561001f575b5050361561001d575f80fd5b005b5f91823560e01c90816319822f7c146107ec578163205c28781461072657816334c89d5a14610663578163485cc955146104775783826384f4fc6a146103e9575081638da5cb5b146103c15781639f6aa57214610398578163a70b706e14610312578163b0d691fe146102ce578163b61d27f6146100c3575063d087d2880361001157346100bf57816003193601126100bf576020906002549051908152f35b5080fd5b9190503461025f57606036600319011261025f576100df610871565b67ffffffffffffffff936044359391602480359087871161026357366023880112156102635786850135978811610263578087019681893692010111610263576001600160a01b03610154337f00000000000000000000000000000000000000000000000000000000000000008316146108c6565b831692831561029b5784809188518b8b823785818d810185815203925af19461017b61096a565b9515610267578189101561022d575b505084959660607fcaf938de11c367272220bfd1d2baa99ca46665e7bc4d85f00adb51b90fe1fa9f92601f9596975192839182528060209b8b8d850152818c8501528484013787838284010152861996879101168101030190a28351948592818452845191828186015281955b8387106102155750508394508582601f949501015201168101030190f35b868101820151898801890152958101958895506101f7565b88106102635786356001600160e01b03191663638cb99b60e01b14610253575b8061018a565b871061025f575f61024d565b8280fd5b8380fd5b6010606492602089519362461bcd60e51b85528401528201526f115e1958dd5d1a5bdb8819985a5b195960821b6044820152fd5b865162461bcd60e51b8152602081880152600e818401526d125b9d985b1a59081d185c99d95d60921b6044820152606490fd5b5050346100bf57816003193601126100bf57517f00000000000000000000000000000000000000000000000000000000000000006001600160a01b03168152602090f35b83346103955760203660031901126103955761032c610871565b81546001600160a01b039182916103469083163314610eb4565b1690610353821515610887565b600154826bffffffffffffffffffffffff60a01b821617600155167f497acc0cea0324bdd4f23786d728c61e36371d2e7e7105d210ffad779afc598a8380a380f35b80fd5b5050346100bf57816003193601126100bf5760015490516001600160a01b039091168152602090f35b5050346100bf57816003193601126100bf57905490516001600160a01b039091168152602090f35b8091843461047357602036600319011261047357610405610871565b83546001600160a01b039061041d9082163314610eb4565b8060015416803b1561046f578592836024928651978895869463427a7e3560e11b865216908401525af190811561046657506104565750f35b61045f90610904565b6103955780f35b513d84823e3d90fd5b8580fd5b5050fd5b90503461025f578160031936011261025f57610491610871565b6001600160a01b039260243584811693919084900361065f577ff0c57e16840df040f15088dc2f81fe391c3923bec73e23a9662efc9c229c6a009384549360ff85841c16159467ffffffffffffffff811680159081610657575b600114908161064d575b159081610644575b506106345767ffffffffffffffff198116600117875587919086610615575b50169283156105e25750610531811515610887565b6bffffffffffffffffffffffff60a01b8381895416178855600154161760015551937f000000000000000000000000000000000000000000000000000000000000000016907fb7053def2fe3d2a5ecb12939fbfcc30f59b5f3efabd9addbe6537fbea7c273988680a36105a2578280f35b805468ff000000000000000019169055600181527fc7f505b2f371ae2175ee4913f4499e1f2633a7b5936321eed1cdaeb6115181d290602090a15f808280f35b606490602084519162461bcd60e51b8352820152600d60248201526c24b73b30b634b21037bbb732b960991b6044820152fd5b68ffffffffffffffffff1916680100000000000000011787555f61051c565b5050505163f92ee8a960e01b8152fd5b9050155f6104fd565b303b1591506104f5565b8791506104eb565b5f80fd5b9190503461025f5760c036600319011261025f5782610680610871565b6001600160a01b039060843582811691908290036102635760a4359163ffffffff60e01b8316809303610722576106bb848654163314610eb4565b8360015416803b1561046f5760c49386928851998a978896631a644ead60e11b88521690860152602435602486015260443560448601526064356064860152608485015260a48401525af19081156104665750610716575080f35b61071f90610904565b80f35b8480fd5b9190503461025f578060031936011261025f57610741610871565b83546001600160a01b03919061075a9083163314610eb4565b1680156107b5578380808093602435905af161077461096a565b501561077e578280f35b906020606492519162461bcd60e51b8352820152601160248201527015da5d1a191c985dd85b0819985a5b1959607a1b6044820152fd5b815162461bcd60e51b81526020818501526011602482015270125b9d985b1a59081c9958da5c1a595b9d607a1b6044820152606490fd5b90503461025f57600319926060368501126103955781359367ffffffffffffffff85116100bf57610120908536030112610395575060209261086a9161085c337f00000000000000000000000000000000000000000000000000000000000000006001600160a01b0316146108c6565b604435916024359101610a02565b9051908152f35b600435906001600160a01b038216820361065f57565b1561088e57565b60405162461bcd60e51b815260206004820152601060248201526f496e76616c696420726567697374727960801b6044820152606490fd5b156108cd57565b60405162461bcd60e51b815260206004820152600f60248201526e13db9b1e48115b9d1c9e541bda5b9d608a1b6044820152606490fd5b67ffffffffffffffff811161091857604052565b634e487b7160e01b5f52604160045260245ffd5b90601f8019910116810190811067ffffffffffffffff82111761091857604052565b67ffffffffffffffff811161091857601f01601f191660200190565b3d15610994573d9061097b8261094e565b91610989604051938461092c565b82523d5f602084013e565b606090565b903590601e198136030182121561065f570180359067ffffffffffffffff821161065f5760200191813603831361065f57565b9291926109d88261094e565b916109e6604051938461092c565b82948184528183011161065f578281602093845f960137010152565b9180610aca575b506040519060208201907f19457468657265756d205369676e6564204d6573736167653a0a3332000000008252603c830152603c8252606082019082821067ffffffffffffffff83111761091857610a8c92610a8392604052519020610a7d610a76610100860186610999565b36916109cc565b90610b1c565b90929192610be4565b5f546001600160a01b03828116911614610ac457610ab1826060610ab7940190610999565b91610c8c565b610ac057600190565b5f90565b50505f90565b5f80808093335af1610ada61096a565b5015610ae6575f610a09565b60405162461bcd60e51b815260206004820152600e60248201526d14185e5b595b9d0819985a5b195960921b6044820152606490fd5b8151919060418303610b4c57610b459250602082015190606060408401519301515f1a90610b56565b9192909190565b50505f9160029190565b91907f7fffffffffffffffffffffffffffffff5d576e7357a4501ddfe92f46681b20a08411610bd957926020929160ff6080956040519485521684840152604083015260608201525f92839182805260015afa15610bcd5780516001600160a01b03811615610bc457918190565b50809160019190565b604051903d90823e3d90fd5b5050505f9160039190565b6004811015610c535780610bf6575050565b60018103610c105760405163f645eedf60e01b8152600490fd5b60028103610c315760405163fce698f760e01b815260048101839052602490fd5b600314610c3b5750565b602490604051906335e2f38360e21b82526004820152fd5b634e487b7160e01b5f52602160045260245ffd5b908151811015610c78570160200190565b634e487b7160e01b5f52603260045260245ffd5b9091600490818110610eac5780821161065f576001600160e01b0319906324f16c0560e11b8535831601610ea3578401926060858503600319011261065f576001600160a01b03938584013585811694919085900361065f57604487013567ffffffffffffffff9788821161065f5701908060238301121561065f57610d1b90602492838582013591016109cc565b96875190838210610e96576020988996878201511691845f941015610dc4575b505060a4949596886001541693604051998a988997637a8a756360e11b8952309089015216908601526044850152606484015260848301525afa918215610db9575f92610d8757505090565b81813d8311610db2575b610d9b818361092c565b810103126100bf5751908115158203610395575090565b503d610d91565b6040513d5f823e3d90fd5b90929193959794965060405190604082019082821090821117610e8457908a916040528181528181019382368637835b838110610e1b5750508051810103126103955750519194879490939092909160a45f610d3b565b90919250888101808211610e72576001600160f81b031990610e3d9084610c67565b5116841a610e4b8285610c67565b535f198114610e6057600101908b9291610df4565b634e487b7160e01b8452601189528784fd5b634e487b7160e01b855260118a528885fd5b634e487b7160e01b8352604188528683fd5b5050505050505050505f90565b50505050505f90565b505050505f90565b15610ebb57565b60405162461bcd60e51b815260206004820152600a60248201526927b7363c9037bbb732b960b11b6044820152606490fdfea26469706673582212204696c3b8c7a1ae7183dadfc21dc21f436a8d5f9c7ebda9b67555f2d45987d83164736f6c63430008140033","linkReferences":{}},"methodIdentifiers":{"entryPoint()":"b0d691fe","execute(address,uint256,bytes)":"b61d27f6","getNonce()":"d087d288","initialize(address,address)":"485cc955","owner()":"8da5cb5b","registerSessionKey(address,uint256,uint256,uint256,address,bytes4)":"34c89d5a","revokeSessionKey(address)":"84f4fc6a","sessionKeyRegistry()":"9f6aa572","updateSessionKeyRegistry(address)":"a70b706e","validateUserOp((address,uint256,bytes,bytes,bytes32,uint256,bytes32,bytes,bytes),bytes32,uint256)":"19822f7c","withdrawTo(address,uint256)":"205c2878"},"id":33}